{
  "_format": "hh-sol-artifact-1",
  "contractName": "CarolusNFTV1",
  "sourceName": "contracts/CarolusNFTV1.sol",
  "abi": [
    {
      "inputs": [
        {
          "internalType": "string",
          "name": "_name",
          "type": "string"
        },
        {
          "internalType": "string",
          "name": "_symbol",
          "type": "string"
        },
        {
          "internalType": "uint256",
          "name": "newMinPrice",
          "type": "uint256"
        },
        {
          "internalType": "string",
          "name": "newBaseURI",
          "type": "string"
        }
      ],
      "stateMutability": "nonpayable",
      "type": "constructor"
    },
    {
      "anonymous": false,
      "inputs": [
        {
          "indexed": true,
          "internalType": "address",
          "name": "owner",
          "type": "address"
        },
        {
          "indexed": true,
          "internalType": "address",
          "name": "approved",
          "type": "address"
        },
        {
          "indexed": true,
          "internalType": "uint256",
          "name": "tokenId",
          "type": "uint256"
        }
      ],
      "name": "Approval",
      "type": "event"
    },
    {
      "anonymous": false,
      "inputs": [
        {
          "indexed": true,
          "internalType": "address",
          "name": "owner",
          "type": "address"
        },
        {
          "indexed": true,
          "internalType": "address",
          "name": "operator",
          "type": "address"
        },
        {
          "indexed": false,
          "internalType": "bool",
          "name": "approved",
          "type": "bool"
        }
      ],
      "name": "ApprovalForAll",
      "type": "event"
    },
    {
      "anonymous": false,
      "inputs": [
        {
          "indexed": false,
          "internalType": "address",
          "name": "account",
          "type": "address"
        }
      ],
      "name": "Paused",
      "type": "event"
    },
    {
      "anonymous": false,
      "inputs": [
        {
          "indexed": true,
          "internalType": "bytes32",
          "name": "role",
          "type": "bytes32"
        },
        {
          "indexed": true,
          "internalType": "bytes32",
          "name": "previousAdminRole",
          "type": "bytes32"
        },
        {
          "indexed": true,
          "internalType": "bytes32",
          "name": "newAdminRole",
          "type": "bytes32"
        }
      ],
      "name": "RoleAdminChanged",
      "type": "event"
    },
    {
      "anonymous": false,
      "inputs": [
        {
          "indexed": true,
          "internalType": "bytes32",
          "name": "role",
          "type": "bytes32"
        },
        {
          "indexed": true,
          "internalType": "address",
          "name": "account",
          "type": "address"
        },
        {
          "indexed": true,
          "internalType": "address",
          "name": "sender",
          "type": "address"
        }
      ],
      "name": "RoleGranted",
      "type": "event"
    },
    {
      "anonymous": false,
      "inputs": [
        {
          "indexed": true,
          "internalType": "bytes32",
          "name": "role",
          "type": "bytes32"
        },
        {
          "indexed": true,
          "internalType": "address",
          "name": "account",
          "type": "address"
        },
        {
          "indexed": true,
          "internalType": "address",
          "name": "sender",
          "type": "address"
        }
      ],
      "name": "RoleRevoked",
      "type": "event"
    },
    {
      "anonymous": false,
      "inputs": [
        {
          "indexed": true,
          "internalType": "address",
          "name": "from",
          "type": "address"
        },
        {
          "indexed": true,
          "internalType": "address",
          "name": "to",
          "type": "address"
        },
        {
          "indexed": true,
          "internalType": "uint256",
          "name": "tokenId",
          "type": "uint256"
        }
      ],
      "name": "Transfer",
      "type": "event"
    },
    {
      "anonymous": false,
      "inputs": [
        {
          "indexed": false,
          "internalType": "address",
          "name": "account",
          "type": "address"
        }
      ],
      "name": "Unpaused",
      "type": "event"
    },
    {
      "inputs": [],
      "name": "DEFAULT_ADMIN_ROLE",
      "outputs": [
        {
          "internalType": "bytes32",
          "name": "",
          "type": "bytes32"
        }
      ],
      "stateMutability": "view",
      "type": "function"
    },
    {
      "inputs": [],
      "name": "MODERATOR_ROLE",
      "outputs": [
        {
          "internalType": "bytes32",
          "name": "",
          "type": "bytes32"
        }
      ],
      "stateMutability": "view",
      "type": "function"
    },
    {
      "inputs": [],
      "name": "PAUSER_ROLE",
      "outputs": [
        {
          "internalType": "bytes32",
          "name": "",
          "type": "bytes32"
        }
      ],
      "stateMutability": "view",
      "type": "function"
    },
    {
      "inputs": [
        {
          "internalType": "address",
          "name": "to",
          "type": "address"
        },
        {
          "internalType": "uint256",
          "name": "tokenId",
          "type": "uint256"
        }
      ],
      "name": "approve",
      "outputs": [],
      "stateMutability": "nonpayable",
      "type": "function"
    },
    {
      "inputs": [
        {
          "internalType": "address",
          "name": "owner",
          "type": "address"
        }
      ],
      "name": "balanceOf",
      "outputs": [
        {
          "internalType": "uint256",
          "name": "",
          "type": "uint256"
        }
      ],
      "stateMutability": "view",
      "type": "function"
    },
    {
      "inputs": [
        {
          "internalType": "uint256",
          "name": "tokenId",
          "type": "uint256"
        }
      ],
      "name": "burn",
      "outputs": [],
      "stateMutability": "nonpayable",
      "type": "function"
    },
    {
      "inputs": [
        {
          "internalType": "uint256",
          "name": "tokenId",
          "type": "uint256"
        }
      ],
      "name": "censure",
      "outputs": [],
      "stateMutability": "nonpayable",
      "type": "function"
    },
    {
      "inputs": [
        {
          "internalType": "uint256",
          "name": "",
          "type": "uint256"
        }
      ],
      "name": "contentMap",
      "outputs": [
        {
          "internalType": "string",
          "name": "",
          "type": "string"
        }
      ],
      "stateMutability": "view",
      "type": "function"
    },
    {
      "inputs": [
        {
          "internalType": "uint256",
          "name": "tokenId",
          "type": "uint256"
        }
      ],
      "name": "downvoteToken",
      "outputs": [],
      "stateMutability": "nonpayable",
      "type": "function"
    },
    {
      "inputs": [
        {
          "internalType": "uint256",
          "name": "tokenId",
          "type": "uint256"
        }
      ],
      "name": "emergencyCensure",
      "outputs": [],
      "stateMutability": "nonpayable",
      "type": "function"
    },
    {
      "inputs": [
        {
          "internalType": "uint256",
          "name": "tokenId",
          "type": "uint256"
        }
      ],
      "name": "getApproved",
      "outputs": [
        {
          "internalType": "address",
          "name": "",
          "type": "address"
        }
      ],
      "stateMutability": "view",
      "type": "function"
    },
    {
      "inputs": [
        {
          "internalType": "bytes32",
          "name": "role",
          "type": "bytes32"
        }
      ],
      "name": "getRoleAdmin",
      "outputs": [
        {
          "internalType": "bytes32",
          "name": "",
          "type": "bytes32"
        }
      ],
      "stateMutability": "view",
      "type": "function"
    },
    {
      "inputs": [
        {
          "internalType": "bytes32",
          "name": "role",
          "type": "bytes32"
        },
        {
          "internalType": "address",
          "name": "account",
          "type": "address"
        }
      ],
      "name": "grantRole",
      "outputs": [],
      "stateMutability": "nonpayable",
      "type": "function"
    },
    {
      "inputs": [
        {
          "internalType": "bytes32",
          "name": "role",
          "type": "bytes32"
        },
        {
          "internalType": "address",
          "name": "account",
          "type": "address"
        }
      ],
      "name": "hasRole",
      "outputs": [
        {
          "internalType": "bool",
          "name": "",
          "type": "bool"
        }
      ],
      "stateMutability": "view",
      "type": "function"
    },
    {
      "inputs": [
        {
          "internalType": "address",
          "name": "owner",
          "type": "address"
        },
        {
          "internalType": "address",
          "name": "operator",
          "type": "address"
        }
      ],
      "name": "isApprovedForAll",
      "outputs": [
        {
          "internalType": "bool",
          "name": "",
          "type": "bool"
        }
      ],
      "stateMutability": "view",
      "type": "function"
    },
    {
      "inputs": [],
      "name": "name",
      "outputs": [
        {
          "internalType": "string",
          "name": "",
          "type": "string"
        }
      ],
      "stateMutability": "view",
      "type": "function"
    },
    {
      "inputs": [
        {
          "internalType": "uint256",
          "name": "tokenId",
          "type": "uint256"
        }
      ],
      "name": "ownerOf",
      "outputs": [
        {
          "internalType": "address",
          "name": "",
          "type": "address"
        }
      ],
      "stateMutability": "view",
      "type": "function"
    },
    {
      "inputs": [],
      "name": "pause",
      "outputs": [],
      "stateMutability": "nonpayable",
      "type": "function"
    },
    {
      "inputs": [],
      "name": "paused",
      "outputs": [
        {
          "internalType": "bool",
          "name": "",
          "type": "bool"
        }
      ],
      "stateMutability": "view",
      "type": "function"
    },
    {
      "inputs": [],
      "name": "pendingWithdrawals",
      "outputs": [
        {
          "internalType": "uint256",
          "name": "",
          "type": "uint256"
        }
      ],
      "stateMutability": "view",
      "type": "function"
    },
    {
      "inputs": [
        {
          "internalType": "string",
          "name": "content",
          "type": "string"
        }
      ],
      "name": "publishMint",
      "outputs": [],
      "stateMutability": "payable",
      "type": "function"
    },
    {
      "inputs": [
        {
          "internalType": "bytes32",
          "name": "role",
          "type": "bytes32"
        },
        {
          "internalType": "address",
          "name": "account",
          "type": "address"
        }
      ],
      "name": "renounceRole",
      "outputs": [],
      "stateMutability": "nonpayable",
      "type": "function"
    },
    {
      "inputs": [
        {
          "internalType": "bytes32",
          "name": "role",
          "type": "bytes32"
        },
        {
          "internalType": "address",
          "name": "account",
          "type": "address"
        }
      ],
      "name": "revokeRole",
      "outputs": [],
      "stateMutability": "nonpayable",
      "type": "function"
    },
    {
      "inputs": [
        {
          "internalType": "address",
          "name": "from",
          "type": "address"
        },
        {
          "internalType": "address",
          "name": "to",
          "type": "address"
        },
        {
          "internalType": "uint256",
          "name": "tokenId",
          "type": "uint256"
        }
      ],
      "name": "safeTransferFrom",
      "outputs": [],
      "stateMutability": "nonpayable",
      "type": "function"
    },
    {
      "inputs": [
        {
          "internalType": "address",
          "name": "from",
          "type": "address"
        },
        {
          "internalType": "address",
          "name": "to",
          "type": "address"
        },
        {
          "internalType": "uint256",
          "name": "tokenId",
          "type": "uint256"
        },
        {
          "internalType": "bytes",
          "name": "_data",
          "type": "bytes"
        }
      ],
      "name": "safeTransferFrom",
      "outputs": [],
      "stateMutability": "nonpayable",
      "type": "function"
    },
    {
      "inputs": [
        {
          "internalType": "address",
          "name": "operator",
          "type": "address"
        },
        {
          "internalType": "bool",
          "name": "approved",
          "type": "bool"
        }
      ],
      "name": "setApprovalForAll",
      "outputs": [],
      "stateMutability": "nonpayable",
      "type": "function"
    },
    {
      "inputs": [
        {
          "internalType": "string",
          "name": "newBaseURI",
          "type": "string"
        }
      ],
      "name": "setBaseURI",
      "outputs": [],
      "stateMutability": "nonpayable",
      "type": "function"
    },
    {
      "inputs": [
        {
          "internalType": "uint256",
          "name": "newMinPrice",
          "type": "uint256"
        }
      ],
      "name": "setMinPrice",
      "outputs": [],
      "stateMutability": "nonpayable",
      "type": "function"
    },
    {
      "inputs": [
        {
          "internalType": "bytes4",
          "name": "interfaceId",
          "type": "bytes4"
        }
      ],
      "name": "supportsInterface",
      "outputs": [
        {
          "internalType": "bool",
          "name": "",
          "type": "bool"
        }
      ],
      "stateMutability": "view",
      "type": "function"
    },
    {
      "inputs": [],
      "name": "symbol",
      "outputs": [
        {
          "internalType": "string",
          "name": "",
          "type": "string"
        }
      ],
      "stateMutability": "view",
      "type": "function"
    },
    {
      "inputs": [
        {
          "internalType": "uint256",
          "name": "index",
          "type": "uint256"
        }
      ],
      "name": "tokenByIndex",
      "outputs": [
        {
          "internalType": "uint256",
          "name": "",
          "type": "uint256"
        }
      ],
      "stateMutability": "view",
      "type": "function"
    },
    {
      "inputs": [
        {
          "internalType": "address",
          "name": "owner",
          "type": "address"
        },
        {
          "internalType": "uint256",
          "name": "index",
          "type": "uint256"
        }
      ],
      "name": "tokenOfOwnerByIndex",
      "outputs": [
        {
          "internalType": "uint256",
          "name": "",
          "type": "uint256"
        }
      ],
      "stateMutability": "view",
      "type": "function"
    },
    {
      "inputs": [
        {
          "internalType": "uint256",
          "name": "",
          "type": "uint256"
        }
      ],
      "name": "tokenToAuthorMap",
      "outputs": [
        {
          "internalType": "address",
          "name": "",
          "type": "address"
        }
      ],
      "stateMutability": "view",
      "type": "function"
    },
    {
      "inputs": [
        {
          "internalType": "uint256",
          "name": "",
          "type": "uint256"
        },
        {
          "internalType": "address",
          "name": "",
          "type": "address"
        }
      ],
      "name": "tokenToDownvoterAddressMap",
      "outputs": [
        {
          "internalType": "bool",
          "name": "",
          "type": "bool"
        }
      ],
      "stateMutability": "view",
      "type": "function"
    },
    {
      "inputs": [
        {
          "internalType": "uint256",
          "name": "",
          "type": "uint256"
        }
      ],
      "name": "tokenToDownvotesMap",
      "outputs": [
        {
          "internalType": "uint256",
          "name": "",
          "type": "uint256"
        }
      ],
      "stateMutability": "view",
      "type": "function"
    },
    {
      "inputs": [
        {
          "internalType": "uint256",
          "name": "",
          "type": "uint256"
        }
      ],
      "name": "tokenToTimestampMap",
      "outputs": [
        {
          "internalType": "uint256",
          "name": "",
          "type": "uint256"
        }
      ],
      "stateMutability": "view",
      "type": "function"
    },
    {
      "inputs": [
        {
          "internalType": "uint256",
          "name": "",
          "type": "uint256"
        },
        {
          "internalType": "address",
          "name": "",
          "type": "address"
        }
      ],
      "name": "tokenToUpvoterAddressMap",
      "outputs": [
        {
          "internalType": "bool",
          "name": "",
          "type": "bool"
        }
      ],
      "stateMutability": "view",
      "type": "function"
    },
    {
      "inputs": [
        {
          "internalType": "uint256",
          "name": "",
          "type": "uint256"
        }
      ],
      "name": "tokenToUpvotesMap",
      "outputs": [
        {
          "internalType": "uint256",
          "name": "",
          "type": "uint256"
        }
      ],
      "stateMutability": "view",
      "type": "function"
    },
    {
      "inputs": [
        {
          "internalType": "uint256",
          "name": "tokenId",
          "type": "uint256"
        }
      ],
      "name": "tokenURI",
      "outputs": [
        {
          "internalType": "string",
          "name": "",
          "type": "string"
        }
      ],
      "stateMutability": "view",
      "type": "function"
    },
    {
      "inputs": [],
      "name": "totalSupply",
      "outputs": [
        {
          "internalType": "uint256",
          "name": "",
          "type": "uint256"
        }
      ],
      "stateMutability": "view",
      "type": "function"
    },
    {
      "inputs": [
        {
          "internalType": "address",
          "name": "from",
          "type": "address"
        },
        {
          "internalType": "address",
          "name": "to",
          "type": "address"
        },
        {
          "internalType": "uint256",
          "name": "tokenId",
          "type": "uint256"
        }
      ],
      "name": "transferFrom",
      "outputs": [],
      "stateMutability": "nonpayable",
      "type": "function"
    },
    {
      "inputs": [],
      "name": "unpause",
      "outputs": [],
      "stateMutability": "nonpayable",
      "type": "function"
    },
    {
      "inputs": [
        {
          "internalType": "uint256",
          "name": "tokenId",
          "type": "uint256"
        }
      ],
      "name": "upvoteToken",
      "outputs": [],
      "stateMutability": "nonpayable",
      "type": "function"
    },
    {
      "inputs": [],
      "name": "withdraw",
      "outputs": [],
      "stateMutability": "nonpayable",
      "type": "function"
    }
  ],
  "bytecode": "0x60806040523480156200001157600080fd5b5060405162005cfa38038062005cfa8339818101604052810190620000379190620003c9565b838381600090805190602001906200005192919062000290565b5080600190805190602001906200006a92919062000290565b5050506000600b60006101000a81548160ff0219169083151502179055506200009d6000801b336200012b60201b60201c565b620000cf7f71f3d55856e4058ed06ee057d79ada615f65cdf5f9ee88181b914225088f834f336200012b60201b60201c565b620001017f65d7a28e3265b37a6474929f336521b332c1681b933f6cb9f3376673440d862a336200012b60201b60201c565b8160158190555080601690805190602001906200012092919062000290565b505050505062000614565b6200013d82826200021d60201b60201c565b62000219576001600c600084815260200190815260200160002060000160008373ffffffffffffffffffffffffffffffffffffffff1673ffffffffffffffffffffffffffffffffffffffff16815260200190815260200160002060006101000a81548160ff021916908315150217905550620001be6200028860201b60201c565b73ffffffffffffffffffffffffffffffffffffffff168173ffffffffffffffffffffffffffffffffffffffff16837f2f8788117e7eff1d82e926ec794901d17c78024a50270940304540a733656f0d60405160405180910390a45b5050565b6000600c600084815260200190815260200160002060000160008373ffffffffffffffffffffffffffffffffffffffff1673ffffffffffffffffffffffffffffffffffffffff16815260200190815260200160002060009054906101000a900460ff16905092915050565b600033905090565b8280546200029e906200051f565b90600052602060002090601f016020900481019282620002c257600085556200030e565b82601f10620002dd57805160ff19168380011785556200030e565b828001600101855582156200030e579182015b828111156200030d578251825591602001919060010190620002f0565b5b5090506200031d919062000321565b5090565b5b808211156200033c57600081600090555060010162000322565b5090565b6000620003576200035184620004a9565b62000480565b9050828152602081018484840111156200037057600080fd5b6200037d848285620004e9565b509392505050565b600082601f8301126200039757600080fd5b8151620003a984826020860162000340565b91505092915050565b600081519050620003c381620005fa565b92915050565b60008060008060808587031215620003e057600080fd5b600085015167ffffffffffffffff811115620003fb57600080fd5b620004098782880162000385565b945050602085015167ffffffffffffffff8111156200042757600080fd5b620004358782880162000385565b93505060406200044887828801620003b2565b925050606085015167ffffffffffffffff8111156200046657600080fd5b620004748782880162000385565b91505092959194509250565b60006200048c6200049f565b90506200049a828262000555565b919050565b6000604051905090565b600067ffffffffffffffff821115620004c757620004c6620005ba565b5b620004d282620005e9565b9050602081019050919050565b6000819050919050565b60005b8381101562000509578082015181840152602081019050620004ec565b8381111562000519576000848401525b50505050565b600060028204905060018216806200053857607f821691505b602082108114156200054f576200054e6200058b565b5b50919050565b6200056082620005e9565b810181811067ffffffffffffffff82111715620005825762000581620005ba565b5b80604052505050565b7f4e487b7100000000000000000000000000000000000000000000000000000000600052602260045260246000fd5b7f4e487b7100000000000000000000000000000000000000000000000000000000600052604160045260246000fd5b6000601f19601f8301169050919050565b6200060581620004df565b81146200061157600080fd5b50565b6156d680620006246000396000f3fe6080604052600436106102675760003560e01c806365f5ecbc1161014457806395d89b41116100b6578063c40a695f1161007a578063c40a695f14610951578063c87b56dd1461098e578063d547741f146109cb578063e63ab1e9146109f4578063e985e9c514610a1f578063f78a315314610a5c57610267565b806395d89b411461087e578063a217fddf146108a9578063a22cb465146108d4578063b88d4fde146108fd578063beca03d51461092657610267565b8063815dcecc11610108578063815dcecc1461077257806381b3f1de1461079b5780638456cb59146107c45780638805135f146107db57806391d1485414610804578063922cd4c91461084157610267565b806365f5ecbc146106675780636e7845f4146106a457806370a08231146106cd578063797669c91461070a5780638072d9e51461073557610267565b806339f22e7d116101dd5780634f6ccce7116101a15780634f6ccce71461053357806355f804b3146105705780635c975abb146105995780635ea8cd12146105c45780636352211e146105ed5780636397be351461062a57610267565b806339f22e7d146104975780633ccfd60b146104b35780633f4ba83a146104ca57806342842e0e146104e157806342966c681461050a57610267565b806318160ddd1161022f57806318160ddd1461037757806323b872dd146103a2578063248a9ca3146103cb5780632f2ff15d146104085780632f745c591461043157806336568abe1461046e57610267565b806301ffc9a71461026c57806306fdde03146102a9578063081812fc146102d4578063095ea7b3146103115780630d4f3d301461033a575b600080fd5b34801561027857600080fd5b50610293600480360381019061028e91906140bb565b610a99565b6040516102a0919061472b565b60405180910390f35b3480156102b557600080fd5b506102be610aab565b6040516102cb9190614761565b60405180910390f35b3480156102e057600080fd5b506102fb60048036038101906102f6919061414e565b610b3d565b60405161030891906146c4565b60405180910390f35b34801561031d57600080fd5b506103386004803603810190610333919061401a565b610bc2565b005b34801561034657600080fd5b50610361600480360381019061035c9190614177565b610cda565b60405161036e919061472b565b60405180910390f35b34801561038357600080fd5b5061038c610d09565b6040516103999190614ac3565b60405180910390f35b3480156103ae57600080fd5b506103c960048036038101906103c49190613f14565b610d16565b005b3480156103d757600080fd5b506103f260048036038101906103ed9190614056565b610d76565b6040516103ff9190614746565b60405180910390f35b34801561041457600080fd5b5061042f600480360381019061042a919061407f565b610d96565b005b34801561043d57600080fd5b506104586004803603810190610453919061401a565b610dbf565b6040516104659190614ac3565b60405180910390f35b34801561047a57600080fd5b506104956004803603810190610490919061407f565b610e64565b005b6104b160048036038101906104ac919061410d565b610ee7565b005b3480156104bf57600080fd5b506104c8611045565b005b3480156104d657600080fd5b506104df61111f565b005b3480156104ed57600080fd5b5061050860048036038101906105039190613f14565b61115c565b005b34801561051657600080fd5b50610531600480360381019061052c919061414e565b61117c565b005b34801561053f57600080fd5b5061055a6004803603810190610555919061414e565b6111d8565b6040516105679190614ac3565b60405180910390f35b34801561057c57600080fd5b506105976004803603810190610592919061410d565b61126f565b005b3480156105a557600080fd5b506105ae611304565b6040516105bb919061472b565b60405180910390f35b3480156105d057600080fd5b506105eb60048036038101906105e6919061414e565b61131b565b005b3480156105f957600080fd5b50610614600480360381019061060f919061414e565b6113a0565b60405161062191906146c4565b60405180910390f35b34801561063657600080fd5b50610651600480360381019061064c919061414e565b611452565b60405161065e91906146c4565b60405180910390f35b34801561067357600080fd5b5061068e60048036038101906106899190614177565b611485565b60405161069b919061472b565b60405180910390f35b3480156106b057600080fd5b506106cb60048036038101906106c6919061414e565b6114b4565b005b3480156106d957600080fd5b506106f460048036038101906106ef9190613eaf565b611682565b6040516107019190614ac3565b60405180910390f35b34801561071657600080fd5b5061071f61173a565b60405161072c9190614746565b60405180910390f35b34801561074157600080fd5b5061075c6004803603810190610757919061414e565b61175e565b6040516107699190614761565b60405180910390f35b34801561077e57600080fd5b506107996004803603810190610794919061414e565b6117fe565b005b3480156107a757600080fd5b506107c260048036038101906107bd919061414e565b611987565b005b3480156107d057600080fd5b506107d9611b10565b005b3480156107e757600080fd5b5061080260048036038101906107fd919061414e565b611b4d565b005b34801561081057600080fd5b5061082b6004803603810190610826919061407f565b611c0c565b604051610838919061472b565b60405180910390f35b34801561084d57600080fd5b506108686004803603810190610863919061414e565b611c77565b6040516108759190614ac3565b60405180910390f35b34801561088a57600080fd5b50610893611c8f565b6040516108a09190614761565b60405180910390f35b3480156108b557600080fd5b506108be611d21565b6040516108cb9190614746565b60405180910390f35b3480156108e057600080fd5b506108fb60048036038101906108f69190613fde565b611d28565b005b34801561090957600080fd5b50610924600480360381019061091f9190613f63565b611d3e565b005b34801561093257600080fd5b5061093b611da0565b6040516109489190614ac3565b60405180910390f35b34801561095d57600080fd5b506109786004803603810190610973919061414e565b611da6565b6040516109859190614ac3565b60405180910390f35b34801561099a57600080fd5b506109b560048036038101906109b0919061414e565b611dbe565b6040516109c29190614761565b60405180910390f35b3480156109d757600080fd5b506109f260048036038101906109ed919061407f565b611dd0565b005b348015610a0057600080fd5b50610a09611df9565b604051610a169190614746565b60405180910390f35b348015610a2b57600080fd5b50610a466004803603810190610a419190613ed8565b611e1d565b604051610a53919061472b565b60405180910390f35b348015610a6857600080fd5b50610a836004803603810190610a7e919061414e565b611eb1565b604051610a909190614ac3565b60405180910390f35b6000610aa482611ec9565b9050919050565b606060008054610aba90614da7565b80601f0160208091040260200160405190810160405280929190818152602001828054610ae690614da7565b8015610b335780601f10610b0857610100808354040283529160200191610b33565b820191906000526020600020905b815481529060010190602001808311610b1657829003601f168201915b5050505050905090565b6000610b4882611f43565b610b87576040517f08c379a0000000000000000000000000000000000000000000000000000000008152600401610b7e906149a3565b60405180910390fd5b6004600083815260200190815260200160002060009054906101000a900473ffffffffffffffffffffffffffffffffffffffff169050919050565b6000610bcd826113a0565b90508073ffffffffffffffffffffffffffffffffffffffff168373ffffffffffffffffffffffffffffffffffffffff161415610c3e576040517f08c379a0000000000000000000000000000000000000000000000000000000008152600401610c3590614a03565b60405180910390fd5b8073ffffffffffffffffffffffffffffffffffffffff16610c5d611faf565b73ffffffffffffffffffffffffffffffffffffffff161480610c8c5750610c8b81610c86611faf565b611e1d565b5b610ccb576040517f08c379a0000000000000000000000000000000000000000000000000000000008152600401610cc2906148c3565b60405180910390fd5b610cd58383611fb7565b505050565b60136020528160005260406000206020528060005260406000206000915091509054906101000a900460ff1681565b6000600880549050905090565b610d27610d21611faf565b82612070565b610d66576040517f08c379a0000000000000000000000000000000000000000000000000000000008152600401610d5d90614a23565b60405180910390fd5b610d7183838361214e565b505050565b6000600c6000838152602001908152602001600020600101549050919050565b610d9f82610d76565b610db081610dab611faf565b6123aa565b610dba8383612447565b505050565b6000610dca83611682565b8210610e0b576040517f08c379a0000000000000000000000000000000000000000000000000000000008152600401610e02906147e3565b60405180910390fd5b600660008473ffffffffffffffffffffffffffffffffffffffff1673ffffffffffffffffffffffffffffffffffffffff168152602001908152602001600020600083815260200190815260200160002054905092915050565b610e6c611faf565b73ffffffffffffffffffffffffffffffffffffffff168173ffffffffffffffffffffffffffffffffffffffff1614610ed9576040517f08c379a0000000000000000000000000000000000000000000000000000000008152600401610ed090614aa3565b60405180910390fd5b610ee38282612528565b5050565b610eef611304565b15610f2f576040517f08c379a0000000000000000000000000000000000000000000000000000000008152600401610f26906148a3565b60405180910390fd5b601554341015610f74576040517f08c379a0000000000000000000000000000000000000000000000000000000008152600401610f6b90614983565b60405180910390fd5b3460176000828254610f869190614ba8565b925050819055506000610f99600d61260a565b9050610fa5600d612618565b610faf338261262e565b81600e60008381526020019081526020016000209080519060200190610fd6929190613c7e565b5033600f600083815260200190815260200160002060006101000a81548173ffffffffffffffffffffffffffffffffffffffff021916908373ffffffffffffffffffffffffffffffffffffffff1602179055504260106000838152602001908152602001600020819055505050565b61104d611304565b1561108d576040517f08c379a0000000000000000000000000000000000000000000000000000000008152600401611084906148a3565b60405180910390fd5b7f71f3d55856e4058ed06ee057d79ada615f65cdf5f9ee88181b914225088f834f6110bf816110ba611faf565b6123aa565b60003390506000601754905060006017819055508173ffffffffffffffffffffffffffffffffffffffff166108fc829081150290604051600060405180830381858888f19350505050158015611119573d6000803e3d6000fd5b50505050565b7f65d7a28e3265b37a6474929f336521b332c1681b933f6cb9f3376673440d862a6111518161114c611faf565b6123aa565b61115961264c565b50565b61117783838360405180602001604052806000815250611d3e565b505050565b61118d611187611faf565b82612070565b6111cc576040517f08c379a00000000000000000000000000000000000000000000000000000000081526004016111c390614a83565b60405180910390fd5b6111d5816126ee565b50565b60006111e2610d09565b8210611223576040517f08c379a000000000000000000000000000000000000000000000000000000000815260040161121a90614a63565b60405180910390fd5b6008828154811061125d577f4e487b7100000000000000000000000000000000000000000000000000000000600052603260045260246000fd5b90600052602060002001549050919050565b611277611304565b156112b7576040517f08c379a00000000000000000000000000000000000000000000000000000000081526004016112ae906148a3565b60405180910390fd5b7f71f3d55856e4058ed06ee057d79ada615f65cdf5f9ee88181b914225088f834f6112e9816112e4611faf565b6123aa565b81601690805190602001906112ff929190613c7e565b505050565b6000600b60009054906101000a900460ff16905090565b611323611304565b15611363576040517f08c379a000000000000000000000000000000000000000000000000000000000815260040161135a906148a3565b60405180910390fd5b7f71f3d55856e4058ed06ee057d79ada615f65cdf5f9ee88181b914225088f834f61139581611390611faf565b6123aa565b816015819055505050565b6000806002600084815260200190815260200160002060009054906101000a900473ffffffffffffffffffffffffffffffffffffffff169050600073ffffffffffffffffffffffffffffffffffffffff168173ffffffffffffffffffffffffffffffffffffffff161415611449576040517f08c379a000000000000000000000000000000000000000000000000000000000815260040161144090614903565b60405180910390fd5b80915050919050565b600f6020528060005260406000206000915054906101000a900473ffffffffffffffffffffffffffffffffffffffff1681565b60146020528160005260406000206020528060005260406000206000915091509054906101000a900460ff1681565b6114bc611304565b156114fc576040517f08c379a00000000000000000000000000000000000000000000000000000000081526004016114f3906148a3565b60405180910390fd5b7f71f3d55856e4058ed06ee057d79ada615f65cdf5f9ee88181b914225088f834f61152e81611529611faf565b6123aa565b611537826113a0565b50600060116000848152602001908152602001600020549050600a811015611594576040517f08c379a000000000000000000000000000000000000000000000000000000000815260040161158b90614a43565b60405180910390fd5b600060126000858152602001908152602001600020549050600a8110156115f0576040517f08c379a00000000000000000000000000000000000000000000000000000000081526004016115e790614783565b60405180910390fd5b600082826115fe9190614bfe565b90506002811015611644576040517f08c379a000000000000000000000000000000000000000000000000000000000815260040161163b90614923565b60405180910390fd5b60405180602001604052806000815250600e6000878152602001908152602001600020908051906020019061167a929190613c7e565b505050505050565b60008073ffffffffffffffffffffffffffffffffffffffff168273ffffffffffffffffffffffffffffffffffffffff1614156116f3576040517f08c379a00000000000000000000000000000000000000000000000000000000081526004016116ea906148e3565b60405180910390fd5b600360008373ffffffffffffffffffffffffffffffffffffffff1673ffffffffffffffffffffffffffffffffffffffff168152602001908152602001600020549050919050565b7f71f3d55856e4058ed06ee057d79ada615f65cdf5f9ee88181b914225088f834f81565b600e602052806000526040600020600091509050805461177d90614da7565b80601f01602080910402602001604051908101604052809291908181526020018280546117a990614da7565b80156117f65780601f106117cb576101008083540402835291602001916117f6565b820191906000526020600020905b8154815290600101906020018083116117d957829003601f168201915b505050505081565b611806611304565b15611846576040517f08c379a000000000000000000000000000000000000000000000000000000000815260040161183d906148a3565b60405180910390fd5b61184f816113a0565b50600033905060006014600084815260200190815260200160002060008373ffffffffffffffffffffffffffffffffffffffff1673ffffffffffffffffffffffffffffffffffffffff16815260200190815260200160002060009054906101000a900460ff16905080156014600085815260200190815260200160002060008473ffffffffffffffffffffffffffffffffffffffff1673ffffffffffffffffffffffffffffffffffffffff16815260200190815260200160002060006101000a81548160ff021916908315150217905550801561195657600160126000858152602001908152602001600020600082825461194a9190614c89565b92505081905550611982565b600160126000858152602001908152602001600020600082825461197a9190614ba8565b925050819055505b505050565b61198f611304565b156119cf576040517f08c379a00000000000000000000000000000000000000000000000000000000081526004016119c6906148a3565b60405180910390fd5b6119d8816113a0565b50600033905060006013600084815260200190815260200160002060008373ffffffffffffffffffffffffffffffffffffffff1673ffffffffffffffffffffffffffffffffffffffff16815260200190815260200160002060009054906101000a900460ff16905080156013600085815260200190815260200160002060008473ffffffffffffffffffffffffffffffffffffffff1673ffffffffffffffffffffffffffffffffffffffff16815260200190815260200160002060006101000a81548160ff0219169083151502179055508015611adf576001601160008581526020019081526020016000206000828254611ad39190614c89565b92505081905550611b0b565b6001601160008581526020019081526020016000206000828254611b039190614ba8565b925050819055505b505050565b7f65d7a28e3265b37a6474929f336521b332c1681b933f6cb9f3376673440d862a611b4281611b3d611faf565b6123aa565b611b4a6126fa565b50565b611b55611304565b15611b95576040517f08c379a0000000000000000000000000000000000000000000000000000000008152600401611b8c906148a3565b60405180910390fd5b7f71f3d55856e4058ed06ee057d79ada615f65cdf5f9ee88181b914225088f834f611bc781611bc2611faf565b6123aa565b611bd0826113a0565b5060405180602001604052806000815250600e60008481526020019081526020016000209080519060200190611c07929190613c7e565b505050565b6000600c600084815260200190815260200160002060000160008373ffffffffffffffffffffffffffffffffffffffff1673ffffffffffffffffffffffffffffffffffffffff16815260200190815260200160002060009054906101000a900460ff16905092915050565b60126020528060005260406000206000915090505481565b606060018054611c9e90614da7565b80601f0160208091040260200160405190810160405280929190818152602001828054611cca90614da7565b8015611d175780601f10611cec57610100808354040283529160200191611d17565b820191906000526020600020905b815481529060010190602001808311611cfa57829003601f168201915b5050505050905090565b6000801b81565b611d3a611d33611faf565b838361279d565b5050565b611d4f611d49611faf565b83612070565b611d8e576040517f08c379a0000000000000000000000000000000000000000000000000000000008152600401611d8590614a23565b60405180910390fd5b611d9a8484848461290a565b50505050565b60175481565b60106020528060005260406000206000915090505481565b6060611dc982612966565b9050919050565b611dd982610d76565b611dea81611de5611faf565b6123aa565b611df48383612528565b505050565b7f65d7a28e3265b37a6474929f336521b332c1681b933f6cb9f3376673440d862a81565b6000600560008473ffffffffffffffffffffffffffffffffffffffff1673ffffffffffffffffffffffffffffffffffffffff16815260200190815260200160002060008373ffffffffffffffffffffffffffffffffffffffff1673ffffffffffffffffffffffffffffffffffffffff16815260200190815260200160002060009054906101000a900460ff16905092915050565b60116020528060005260406000206000915090505481565b60007f7965db0b000000000000000000000000000000000000000000000000000000007bffffffffffffffffffffffffffffffffffffffffffffffffffffffff1916827bffffffffffffffffffffffffffffffffffffffffffffffffffffffff19161480611f3c5750611f3b82612ab8565b5b9050919050565b60008073ffffffffffffffffffffffffffffffffffffffff166002600084815260200190815260200160002060009054906101000a900473ffffffffffffffffffffffffffffffffffffffff1673ffffffffffffffffffffffffffffffffffffffff1614159050919050565b600033905090565b816004600083815260200190815260200160002060006101000a81548173ffffffffffffffffffffffffffffffffffffffff021916908373ffffffffffffffffffffffffffffffffffffffff160217905550808273ffffffffffffffffffffffffffffffffffffffff1661202a836113a0565b73ffffffffffffffffffffffffffffffffffffffff167f8c5be1e5ebec7d5bd14f71427d1e84f3dd0314c0f7b2291e5b200ac8c7c3b92560405160405180910390a45050565b600061207b82611f43565b6120ba576040517f08c379a00000000000000000000000000000000000000000000000000000000081526004016120b190614883565b60405180910390fd5b60006120c5836113a0565b90508073ffffffffffffffffffffffffffffffffffffffff168473ffffffffffffffffffffffffffffffffffffffff16148061213457508373ffffffffffffffffffffffffffffffffffffffff1661211c84610b3d565b73ffffffffffffffffffffffffffffffffffffffff16145b8061214557506121448185611e1d565b5b91505092915050565b8273ffffffffffffffffffffffffffffffffffffffff1661216e826113a0565b73ffffffffffffffffffffffffffffffffffffffff16146121c4576040517f08c379a00000000000000000000000000000000000000000000000000000000081526004016121bb906149c3565b60405180910390fd5b600073ffffffffffffffffffffffffffffffffffffffff168273ffffffffffffffffffffffffffffffffffffffff161415612234576040517f08c379a000000000000000000000000000000000000000000000000000000000815260040161222b90614843565b60405180910390fd5b61223f838383612b32565b61224a600082611fb7565b6001600360008573ffffffffffffffffffffffffffffffffffffffff1673ffffffffffffffffffffffffffffffffffffffff168152602001908152602001600020600082825461229a9190614c89565b925050819055506001600360008473ffffffffffffffffffffffffffffffffffffffff1673ffffffffffffffffffffffffffffffffffffffff16815260200190815260200160002060008282546122f19190614ba8565b92505081905550816002600083815260200190815260200160002060006101000a81548173ffffffffffffffffffffffffffffffffffffffff021916908373ffffffffffffffffffffffffffffffffffffffff160217905550808273ffffffffffffffffffffffffffffffffffffffff168473ffffffffffffffffffffffffffffffffffffffff167fddf252ad1be2c89b69c2b068fc378daa952ba7f163c4a11628f55a4df523b3ef60405160405180910390a4505050565b6123b48282611c0c565b612443576123d98173ffffffffffffffffffffffffffffffffffffffff166014612b8a565b6123e78360001c6020612b8a565b6040516020016123f892919061468a565b6040516020818303038152906040526040517f08c379a000000000000000000000000000000000000000000000000000000000815260040161243a9190614761565b60405180910390fd5b5050565b6124518282611c0c565b612524576001600c600084815260200190815260200160002060000160008373ffffffffffffffffffffffffffffffffffffffff1673ffffffffffffffffffffffffffffffffffffffff16815260200190815260200160002060006101000a81548160ff0219169083151502179055506124c9611faf565b73ffffffffffffffffffffffffffffffffffffffff168173ffffffffffffffffffffffffffffffffffffffff16837f2f8788117e7eff1d82e926ec794901d17c78024a50270940304540a733656f0d60405160405180910390a45b5050565b6125328282611c0c565b15612606576000600c600084815260200190815260200160002060000160008373ffffffffffffffffffffffffffffffffffffffff1673ffffffffffffffffffffffffffffffffffffffff16815260200190815260200160002060006101000a81548160ff0219169083151502179055506125ab611faf565b73ffffffffffffffffffffffffffffffffffffffff168173ffffffffffffffffffffffffffffffffffffffff16837ff6391f5c32d9c69d2a47ea670b442974b53935d1edc7fd64eb21e047a839171b60405160405180910390a45b5050565b600081600001549050919050565b6001816000016000828254019250508190555050565b612648828260405180602001604052806000815250612e84565b5050565b612654611304565b612693576040517f08c379a000000000000000000000000000000000000000000000000000000000815260040161268a906147c3565b60405180910390fd5b6000600b60006101000a81548160ff0219169083151502179055507f5db9ee0a495bf2e6ff9c91a7834c1ba4fdd244a5e8aa4e537bd38aeae4b073aa6126d7611faf565b6040516126e491906146c4565b60405180910390a1565b6126f781612edf565b50565b612702611304565b15612742576040517f08c379a0000000000000000000000000000000000000000000000000000000008152600401612739906148a3565b60405180910390fd5b6001600b60006101000a81548160ff0219169083151502179055507f62e78cea01bee320cd4e420270b5ea74000d11b0c9f74754ebdbfc544b05a258612786611faf565b60405161279391906146c4565b60405180910390a1565b8173ffffffffffffffffffffffffffffffffffffffff168373ffffffffffffffffffffffffffffffffffffffff16141561280c576040517f08c379a000000000000000000000000000000000000000000000000000000000815260040161280390614863565b60405180910390fd5b80600560008573ffffffffffffffffffffffffffffffffffffffff1673ffffffffffffffffffffffffffffffffffffffff16815260200190815260200160002060008473ffffffffffffffffffffffffffffffffffffffff1673ffffffffffffffffffffffffffffffffffffffff16815260200190815260200160002060006101000a81548160ff0219169083151502179055508173ffffffffffffffffffffffffffffffffffffffff168373ffffffffffffffffffffffffffffffffffffffff167f17307eab39ab6107e8899845ad3d59bd9653f200f220920489ca2b5937696c31836040516128fd919061472b565b60405180910390a3505050565b61291584848461214e565b61292184848484612f32565b612960576040517f08c379a000000000000000000000000000000000000000000000000000000000815260040161295790614803565b60405180910390fd5b50505050565b606061297182611f43565b6129b0576040517f08c379a00000000000000000000000000000000000000000000000000000000081526004016129a790614963565b60405180910390fd5b6000600a600084815260200190815260200160002080546129d090614da7565b80601f01602080910402602001604051908101604052809291908181526020018280546129fc90614da7565b8015612a495780601f10612a1e57610100808354040283529160200191612a49565b820191906000526020600020905b815481529060010190602001808311612a2c57829003601f168201915b505050505090506000612a5a6130c9565b9050600081511415612a70578192505050612ab3565b600082511115612aa5578082604051602001612a8d929190614666565b60405160208183030381529060405292505050612ab3565b612aae8461315b565b925050505b919050565b60007f780e9d63000000000000000000000000000000000000000000000000000000007bffffffffffffffffffffffffffffffffffffffffffffffffffffffff1916827bffffffffffffffffffffffffffffffffffffffffffffffffffffffff19161480612b2b5750612b2a82613202565b5b9050919050565b612b3a611304565b15612b7a576040517f08c379a0000000000000000000000000000000000000000000000000000000008152600401612b71906148a3565b60405180910390fd5b612b858383836132e4565b505050565b606060006002836002612b9d9190614c2f565b612ba79190614ba8565b67ffffffffffffffff811115612be6577f4e487b7100000000000000000000000000000000000000000000000000000000600052604160045260246000fd5b6040519080825280601f01601f191660200182016040528015612c185781602001600182028036833780820191505090505b5090507f300000000000000000000000000000000000000000000000000000000000000081600081518110612c76577f4e487b7100000000000000000000000000000000000000000000000000000000600052603260045260246000fd5b60200101907effffffffffffffffffffffffffffffffffffffffffffffffffffffffffffff1916908160001a9053507f780000000000000000000000000000000000000000000000000000000000000081600181518110612d00577f4e487b7100000000000000000000000000000000000000000000000000000000600052603260045260246000fd5b60200101907effffffffffffffffffffffffffffffffffffffffffffffffffffffffffffff1916908160001a90535060006001846002612d409190614c2f565b612d4a9190614ba8565b90505b6001811115612e36577f3031323334353637383961626364656600000000000000000000000000000000600f861660108110612db2577f4e487b7100000000000000000000000000000000000000000000000000000000600052603260045260246000fd5b1a60f81b828281518110612def577f4e487b7100000000000000000000000000000000000000000000000000000000600052603260045260246000fd5b60200101907effffffffffffffffffffffffffffffffffffffffffffffffffffffffffffff1916908160001a905350600485901c945080612e2f90614d7d565b9050612d4d565b5060008414612e7a576040517f08c379a0000000000000000000000000000000000000000000000000000000008152600401612e71906147a3565b60405180910390fd5b8091505092915050565b612e8e83836133f8565b612e9b6000848484612f32565b612eda576040517f08c379a0000000000000000000000000000000000000000000000000000000008152600401612ed190614803565b60405180910390fd5b505050565b612ee8816135c6565b6000600a60008381526020019081526020016000208054612f0890614da7565b905014612f2f57600a60008281526020019081526020016000206000612f2e9190613d04565b5b50565b6000612f538473ffffffffffffffffffffffffffffffffffffffff166136d7565b156130bc578373ffffffffffffffffffffffffffffffffffffffff1663150b7a02612f7c611faf565b8786866040518563ffffffff1660e01b8152600401612f9e94939291906146df565b602060405180830381600087803b158015612fb857600080fd5b505af1925050508015612fe957506040513d601f19601f82011682018060405250810190612fe691906140e4565b60015b61306c573d8060008114613019576040519150601f19603f3d011682016040523d82523d6000602084013e61301e565b606091505b50600081511415613064576040517f08c379a000000000000000000000000000000000000000000000000000000000815260040161305b90614803565b60405180910390fd5b805181602001fd5b63150b7a0260e01b7bffffffffffffffffffffffffffffffffffffffffffffffffffffffff1916817bffffffffffffffffffffffffffffffffffffffffffffffffffffffff1916149150506130c1565b600190505b949350505050565b6060601680546130d890614da7565b80601f016020809104026020016040519081016040528092919081815260200182805461310490614da7565b80156131515780601f1061312657610100808354040283529160200191613151565b820191906000526020600020905b81548152906001019060200180831161313457829003601f168201915b5050505050905090565b606061316682611f43565b6131a5576040517f08c379a000000000000000000000000000000000000000000000000000000000815260040161319c906149e3565b60405180910390fd5b60006131af6130c9565b905060008151116131cf57604051806020016040528060008152506131fa565b806131d9846136ea565b6040516020016131ea929190614666565b6040516020818303038152906040525b915050919050565b60007f80ac58cd000000000000000000000000000000000000000000000000000000007bffffffffffffffffffffffffffffffffffffffffffffffffffffffff1916827bffffffffffffffffffffffffffffffffffffffffffffffffffffffff191614806132cd57507f5b5e139f000000000000000000000000000000000000000000000000000000007bffffffffffffffffffffffffffffffffffffffffffffffffffffffff1916827bffffffffffffffffffffffffffffffffffffffffffffffffffffffff1916145b806132dd57506132dc82613897565b5b9050919050565b6132ef838383613901565b600073ffffffffffffffffffffffffffffffffffffffff168373ffffffffffffffffffffffffffffffffffffffff1614156133325761332d81613906565b613371565b8173ffffffffffffffffffffffffffffffffffffffff168373ffffffffffffffffffffffffffffffffffffffff16146133705761336f838261394f565b5b5b600073ffffffffffffffffffffffffffffffffffffffff168273ffffffffffffffffffffffffffffffffffffffff1614156133b4576133af81613abc565b6133f3565b8273ffffffffffffffffffffffffffffffffffffffff168273ffffffffffffffffffffffffffffffffffffffff16146133f2576133f18282613bff565b5b5b505050565b600073ffffffffffffffffffffffffffffffffffffffff168273ffffffffffffffffffffffffffffffffffffffff161415613468576040517f08c379a000000000000000000000000000000000000000000000000000000000815260040161345f90614943565b60405180910390fd5b61347181611f43565b156134b1576040517f08c379a00000000000000000000000000000000000000000000000000000000081526004016134a890614823565b60405180910390fd5b6134bd60008383612b32565b6001600360008473ffffffffffffffffffffffffffffffffffffffff1673ffffffffffffffffffffffffffffffffffffffff168152602001908152602001600020600082825461350d9190614ba8565b92505081905550816002600083815260200190815260200160002060006101000a81548173ffffffffffffffffffffffffffffffffffffffff021916908373ffffffffffffffffffffffffffffffffffffffff160217905550808273ffffffffffffffffffffffffffffffffffffffff16600073ffffffffffffffffffffffffffffffffffffffff167fddf252ad1be2c89b69c2b068fc378daa952ba7f163c4a11628f55a4df523b3ef60405160405180910390a45050565b60006135d1826113a0565b90506135df81600084612b32565b6135ea600083611fb7565b6001600360008373ffffffffffffffffffffffffffffffffffffffff1673ffffffffffffffffffffffffffffffffffffffff168152602001908152602001600020600082825461363a9190614c89565b925050819055506002600083815260200190815260200160002060006101000a81549073ffffffffffffffffffffffffffffffffffffffff021916905581600073ffffffffffffffffffffffffffffffffffffffff168273ffffffffffffffffffffffffffffffffffffffff167fddf252ad1be2c89b69c2b068fc378daa952ba7f163c4a11628f55a4df523b3ef60405160405180910390a45050565b600080823b905060008111915050919050565b60606000821415613732576040518060400160405280600181526020017f30000000000000000000000000000000000000000000000000000000000000008152509050613892565b600082905060005b6000821461376457808061374d90614e0a565b915050600a8261375d9190614bfe565b915061373a565b60008167ffffffffffffffff8111156137a6577f4e487b7100000000000000000000000000000000000000000000000000000000600052604160045260246000fd5b6040519080825280601f01601f1916602001820160405280156137d85781602001600182028036833780820191505090505b5090505b6000851461388b576001826137f19190614c89565b9150600a856138009190614e53565b603061380c9190614ba8565b60f81b818381518110613848577f4e487b7100000000000000000000000000000000000000000000000000000000600052603260045260246000fd5b60200101907effffffffffffffffffffffffffffffffffffffffffffffffffffffffffffff1916908160001a905350600a856138849190614bfe565b94506137dc565b8093505050505b919050565b60007f01ffc9a7000000000000000000000000000000000000000000000000000000007bffffffffffffffffffffffffffffffffffffffffffffffffffffffff1916827bffffffffffffffffffffffffffffffffffffffffffffffffffffffff1916149050919050565b505050565b6008805490506009600083815260200190815260200160002081905550600881908060018154018082558091505060019003906000526020600020016000909190919091505550565b6000600161395c84611682565b6139669190614c89565b9050600060076000848152602001908152602001600020549050818114613a4b576000600660008673ffffffffffffffffffffffffffffffffffffffff1673ffffffffffffffffffffffffffffffffffffffff168152602001908152602001600020600084815260200190815260200160002054905080600660008773ffffffffffffffffffffffffffffffffffffffff1673ffffffffffffffffffffffffffffffffffffffff168152602001908152602001600020600084815260200190815260200160002081905550816007600083815260200190815260200160002081905550505b6007600084815260200190815260200160002060009055600660008573ffffffffffffffffffffffffffffffffffffffff1673ffffffffffffffffffffffffffffffffffffffff16815260200190815260200160002060008381526020019081526020016000206000905550505050565b60006001600880549050613ad09190614c89565b9050600060096000848152602001908152602001600020549050600060088381548110613b26577f4e487b7100000000000000000000000000000000000000000000000000000000600052603260045260246000fd5b906000526020600020015490508060088381548110613b6e577f4e487b7100000000000000000000000000000000000000000000000000000000600052603260045260246000fd5b906000526020600020018190555081600960008381526020019081526020016000208190555060096000858152602001908152602001600020600090556008805480613be3577f4e487b7100000000000000000000000000000000000000000000000000000000600052603160045260246000fd5b6001900381819060005260206000200160009055905550505050565b6000613c0a83611682565b905081600660008573ffffffffffffffffffffffffffffffffffffffff1673ffffffffffffffffffffffffffffffffffffffff168152602001908152602001600020600083815260200190815260200160002081905550806007600084815260200190815260200160002081905550505050565b828054613c8a90614da7565b90600052602060002090601f016020900481019282613cac5760008555613cf3565b82601f10613cc557805160ff1916838001178555613cf3565b82800160010185558215613cf3579182015b82811115613cf2578251825591602001919060010190613cd7565b5b509050613d009190613d44565b5090565b508054613d1090614da7565b6000825580601f10613d225750613d41565b601f016020900490600052602060002090810190613d409190613d44565b5b50565b5b80821115613d5d576000816000905550600101613d45565b5090565b6000613d74613d6f84614b03565b614ade565b905082815260208101848484011115613d8c57600080fd5b613d97848285614d3b565b509392505050565b6000613db2613dad84614b34565b614ade565b905082815260208101848484011115613dca57600080fd5b613dd5848285614d3b565b509392505050565b600081359050613dec8161562d565b92915050565b600081359050613e0181615644565b92915050565b600081359050613e168161565b565b92915050565b600081359050613e2b81615672565b92915050565b600081519050613e4081615672565b92915050565b600082601f830112613e5757600080fd5b8135613e67848260208601613d61565b91505092915050565b600082601f830112613e8157600080fd5b8135613e91848260208601613d9f565b91505092915050565b600081359050613ea981615689565b92915050565b600060208284031215613ec157600080fd5b6000613ecf84828501613ddd565b91505092915050565b60008060408385031215613eeb57600080fd5b6000613ef985828601613ddd565b9250506020613f0a85828601613ddd565b9150509250929050565b600080600060608486031215613f2957600080fd5b6000613f3786828701613ddd565b9350506020613f4886828701613ddd565b9250506040613f5986828701613e9a565b9150509250925092565b60008060008060808587031215613f7957600080fd5b6000613f8787828801613ddd565b9450506020613f9887828801613ddd565b9350506040613fa987828801613e9a565b925050606085013567ffffffffffffffff811115613fc657600080fd5b613fd287828801613e46565b91505092959194509250565b60008060408385031215613ff157600080fd5b6000613fff85828601613ddd565b925050602061401085828601613df2565b9150509250929050565b6000806040838503121561402d57600080fd5b600061403b85828601613ddd565b925050602061404c85828601613e9a565b9150509250929050565b60006020828403121561406857600080fd5b600061407684828501613e07565b91505092915050565b6000806040838503121561409257600080fd5b60006140a085828601613e07565b92505060206140b185828601613ddd565b9150509250929050565b6000602082840312156140cd57600080fd5b60006140db84828501613e1c565b91505092915050565b6000602082840312156140f657600080fd5b600061410484828501613e31565b91505092915050565b60006020828403121561411f57600080fd5b600082013567ffffffffffffffff81111561413957600080fd5b61414584828501613e70565b91505092915050565b60006020828403121561416057600080fd5b600061416e84828501613e9a565b91505092915050565b6000806040838503121561418a57600080fd5b600061419885828601613e9a565b92505060206141a985828601613ddd565b9150509250929050565b6141bc81614cbd565b82525050565b6141cb81614ccf565b82525050565b6141da81614cdb565b82525050565b60006141eb82614b65565b6141f58185614b7b565b9350614205818560208601614d4a565b61420e81614f40565b840191505092915050565b600061422482614b70565b61422e8185614b8c565b935061423e818560208601614d4a565b61424781614f40565b840191505092915050565b600061425d82614b70565b6142678185614b9d565b9350614277818560208601614d4a565b80840191505092915050565b6000614290601483614b8c565b915061429b82614f51565b602082019050919050565b60006142b3602083614b8c565b91506142be82614f7a565b602082019050919050565b60006142d6601483614b8c565b91506142e182614fa3565b602082019050919050565b60006142f9602b83614b8c565b915061430482614fcc565b604082019050919050565b600061431c603283614b8c565b91506143278261501b565b604082019050919050565b600061433f601c83614b8c565b915061434a8261506a565b602082019050919050565b6000614362602483614b8c565b915061436d82615093565b604082019050919050565b6000614385601983614b8c565b9150614390826150e2565b602082019050919050565b60006143a8602c83614b8c565b91506143b38261510b565b604082019050919050565b60006143cb601083614b8c565b91506143d68261515a565b602082019050919050565b60006143ee603883614b8c565b91506143f982615183565b604082019050919050565b6000614411602a83614b8c565b915061441c826151d2565b604082019050919050565b6000614434602983614b8c565b915061443f82615221565b604082019050919050565b6000614457601883614b8c565b915061446282615270565b602082019050919050565b600061447a602083614b8c565b915061448582615299565b602082019050919050565b600061449d603183614b8c565b91506144a8826152c2565b604082019050919050565b60006144c0601783614b8c565b91506144cb82615311565b602082019050919050565b60006144e3602c83614b8c565b91506144ee8261533a565b604082019050919050565b6000614506602983614b8c565b915061451182615389565b604082019050919050565b6000614529602f83614b8c565b9150614534826153d8565b604082019050919050565b600061454c602183614b8c565b915061455782615427565b604082019050919050565b600061456f603183614b8c565b915061457a82615476565b604082019050919050565b6000614592601283614b8c565b915061459d826154c5565b602082019050919050565b60006145b5602c83614b8c565b91506145c0826154ee565b604082019050919050565b60006145d8601783614b9d565b91506145e38261553d565b601782019050919050565b60006145fb603083614b8c565b915061460682615566565b604082019050919050565b600061461e601183614b9d565b9150614629826155b5565b601182019050919050565b6000614641602f83614b8c565b915061464c826155de565b604082019050919050565b61466081614d31565b82525050565b60006146728285614252565b915061467e8284614252565b91508190509392505050565b6000614695826145cb565b91506146a18285614252565b91506146ac82614611565b91506146b88284614252565b91508190509392505050565b60006020820190506146d960008301846141b3565b92915050565b60006080820190506146f460008301876141b3565b61470160208301866141b3565b61470e6040830185614657565b818103606083015261472081846141e0565b905095945050505050565b600060208201905061474060008301846141c2565b92915050565b600060208201905061475b60008301846141d1565b92915050565b6000602082019050818103600083015261477b8184614219565b905092915050565b6000602082019050818103600083015261479c81614283565b9050919050565b600060208201905081810360008301526147bc816142a6565b9050919050565b600060208201905081810360008301526147dc816142c9565b9050919050565b600060208201905081810360008301526147fc816142ec565b9050919050565b6000602082019050818103600083015261481c8161430f565b9050919050565b6000602082019050818103600083015261483c81614332565b9050919050565b6000602082019050818103600083015261485c81614355565b9050919050565b6000602082019050818103600083015261487c81614378565b9050919050565b6000602082019050818103600083015261489c8161439b565b9050919050565b600060208201905081810360008301526148bc816143be565b9050919050565b600060208201905081810360008301526148dc816143e1565b9050919050565b600060208201905081810360008301526148fc81614404565b9050919050565b6000602082019050818103600083015261491c81614427565b9050919050565b6000602082019050818103600083015261493c8161444a565b9050919050565b6000602082019050818103600083015261495c8161446d565b9050919050565b6000602082019050818103600083015261497c81614490565b9050919050565b6000602082019050818103600083015261499c816144b3565b9050919050565b600060208201905081810360008301526149bc816144d6565b9050919050565b600060208201905081810360008301526149dc816144f9565b9050919050565b600060208201905081810360008301526149fc8161451c565b9050919050565b60006020820190508181036000830152614a1c8161453f565b9050919050565b60006020820190508181036000830152614a3c81614562565b9050919050565b60006020820190508181036000830152614a5c81614585565b9050919050565b60006020820190508181036000830152614a7c816145a8565b9050919050565b60006020820190508181036000830152614a9c816145ee565b9050919050565b60006020820190508181036000830152614abc81614634565b9050919050565b6000602082019050614ad86000830184614657565b92915050565b6000614ae8614af9565b9050614af48282614dd9565b919050565b6000604051905090565b600067ffffffffffffffff821115614b1e57614b1d614f11565b5b614b2782614f40565b9050602081019050919050565b600067ffffffffffffffff821115614b4f57614b4e614f11565b5b614b5882614f40565b9050602081019050919050565b600081519050919050565b600081519050919050565b600082825260208201905092915050565b600082825260208201905092915050565b600081905092915050565b6000614bb382614d31565b9150614bbe83614d31565b9250827fffffffffffffffffffffffffffffffffffffffffffffffffffffffffffffffff03821115614bf357614bf2614e84565b5b828201905092915050565b6000614c0982614d31565b9150614c1483614d31565b925082614c2457614c23614eb3565b5b828204905092915050565b6000614c3a82614d31565b9150614c4583614d31565b9250817fffffffffffffffffffffffffffffffffffffffffffffffffffffffffffffffff0483118215151615614c7e57614c7d614e84565b5b828202905092915050565b6000614c9482614d31565b9150614c9f83614d31565b925082821015614cb257614cb1614e84565b5b828203905092915050565b6000614cc882614d11565b9050919050565b60008115159050919050565b6000819050919050565b60007fffffffff0000000000000000000000000000000000000000000000000000000082169050919050565b600073ffffffffffffffffffffffffffffffffffffffff82169050919050565b6000819050919050565b82818337600083830152505050565b60005b83811015614d68578082015181840152602081019050614d4d565b83811115614d77576000848401525b50505050565b6000614d8882614d31565b91506000821415614d9c57614d9b614e84565b5b600182039050919050565b60006002820490506001821680614dbf57607f821691505b60208210811415614dd357614dd2614ee2565b5b50919050565b614de282614f40565b810181811067ffffffffffffffff82111715614e0157614e00614f11565b5b80604052505050565b6000614e1582614d31565b91507fffffffffffffffffffffffffffffffffffffffffffffffffffffffffffffffff821415614e4857614e47614e84565b5b600182019050919050565b6000614e5e82614d31565b9150614e6983614d31565b925082614e7957614e78614eb3565b5b828206905092915050565b7f4e487b7100000000000000000000000000000000000000000000000000000000600052601160045260246000fd5b7f4e487b7100000000000000000000000000000000000000000000000000000000600052601260045260246000fd5b7f4e487b7100000000000000000000000000000000000000000000000000000000600052602260045260246000fd5b7f4e487b7100000000000000000000000000000000000000000000000000000000600052604160045260246000fd5b6000601f19601f8301169050919050565b7f6e6f7420656e6f75676820646f776e766f746573000000000000000000000000600082015250565b7f537472696e67733a20686578206c656e67746820696e73756666696369656e74600082015250565b7f5061757361626c653a206e6f7420706175736564000000000000000000000000600082015250565b7f455243373231456e756d657261626c653a206f776e657220696e646578206f7560008201527f74206f6620626f756e6473000000000000000000000000000000000000000000602082015250565b7f4552433732313a207472616e7366657220746f206e6f6e20455243373231526560008201527f63656976657220696d706c656d656e7465720000000000000000000000000000602082015250565b7f4552433732313a20746f6b656e20616c7265616479206d696e74656400000000600082015250565b7f4552433732313a207472616e7366657220746f20746865207a65726f2061646460008201527f7265737300000000000000000000000000000000000000000000000000000000602082015250565b7f4552433732313a20617070726f766520746f2063616c6c657200000000000000600082015250565b7f4552433732313a206f70657261746f7220717565727920666f72206e6f6e657860008201527f697374656e7420746f6b656e0000000000000000000000000000000000000000602082015250565b7f5061757361626c653a2070617573656400000000000000000000000000000000600082015250565b7f4552433732313a20617070726f76652063616c6c6572206973206e6f74206f7760008201527f6e6572206e6f7220617070726f76656420666f7220616c6c0000000000000000602082015250565b7f4552433732313a2062616c616e636520717565727920666f7220746865207a6560008201527f726f206164647265737300000000000000000000000000000000000000000000602082015250565b7f4552433732313a206f776e657220717565727920666f72206e6f6e657869737460008201527f656e7420746f6b656e0000000000000000000000000000000000000000000000602082015250565b7f6e6f7420656e6f75676820646f776e766f746520726174650000000000000000600082015250565b7f4552433732313a206d696e7420746f20746865207a65726f2061646472657373600082015250565b7f45524337323155524953746f726167653a2055524920717565727920666f722060008201527f6e6f6e6578697374656e7420746f6b656e000000000000000000000000000000602082015250565b7f63616e2774206166666f7264207075626c697368696e67000000000000000000600082015250565b7f4552433732313a20617070726f76656420717565727920666f72206e6f6e657860008201527f697374656e7420746f6b656e0000000000000000000000000000000000000000602082015250565b7f4552433732313a207472616e73666572206f6620746f6b656e2074686174206960008201527f73206e6f74206f776e0000000000000000000000000000000000000000000000602082015250565b7f4552433732314d657461646174613a2055524920717565727920666f72206e6f60008201527f6e6578697374656e7420746f6b656e0000000000000000000000000000000000602082015250565b7f4552433732313a20617070726f76616c20746f2063757272656e74206f776e6560008201527f7200000000000000000000000000000000000000000000000000000000000000602082015250565b7f4552433732313a207472616e736665722063616c6c6572206973206e6f74206f60008201527f776e6572206e6f7220617070726f766564000000000000000000000000000000602082015250565b7f6e6f7420656e6f756768207570766f7465730000000000000000000000000000600082015250565b7f455243373231456e756d657261626c653a20676c6f62616c20696e646578206f60008201527f7574206f6620626f756e64730000000000000000000000000000000000000000602082015250565b7f416363657373436f6e74726f6c3a206163636f756e7420000000000000000000600082015250565b7f4552433732314275726e61626c653a2063616c6c6572206973206e6f74206f7760008201527f6e6572206e6f7220617070726f76656400000000000000000000000000000000602082015250565b7f206973206d697373696e6720726f6c6520000000000000000000000000000000600082015250565b7f416363657373436f6e74726f6c3a2063616e206f6e6c792072656e6f756e636560008201527f20726f6c657320666f722073656c660000000000000000000000000000000000602082015250565b61563681614cbd565b811461564157600080fd5b50565b61564d81614ccf565b811461565857600080fd5b50565b61566481614cdb565b811461566f57600080fd5b50565b61567b81614ce5565b811461568657600080fd5b50565b61569281614d31565b811461569d57600080fd5b5056fea2646970667358221220f30bc86b0f2c66573977ab270b5b6e931a614b310b1d8946534cda751d49eff664736f6c63430008040033",
  "linkReferences": {},
  "deployedLinkReferences": {}
}