{
  "_format": "hh-sol-artifact-1",
  "contractName": "CarolusNFTV1",
  "sourceName": "contracts/CarolusNFTV1.sol",
  "abi": [
    {
      "inputs": [
        {
          "internalType": "string",
          "name": "_name",
          "type": "string"
        },
        {
          "internalType": "string",
          "name": "_symbol",
          "type": "string"
        },
        {
          "internalType": "uint256",
          "name": "newMinPrice",
          "type": "uint256"
        },
        {
          "internalType": "string",
          "name": "newBaseURI",
          "type": "string"
        }
      ],
      "stateMutability": "nonpayable",
      "type": "constructor"
    },
    {
      "anonymous": false,
      "inputs": [
        {
          "indexed": true,
          "internalType": "address",
          "name": "owner",
          "type": "address"
        },
        {
          "indexed": true,
          "internalType": "address",
          "name": "approved",
          "type": "address"
        },
        {
          "indexed": true,
          "internalType": "uint256",
          "name": "tokenId",
          "type": "uint256"
        }
      ],
      "name": "Approval",
      "type": "event"
    },
    {
      "anonymous": false,
      "inputs": [
        {
          "indexed": true,
          "internalType": "address",
          "name": "owner",
          "type": "address"
        },
        {
          "indexed": true,
          "internalType": "address",
          "name": "operator",
          "type": "address"
        },
        {
          "indexed": false,
          "internalType": "bool",
          "name": "approved",
          "type": "bool"
        }
      ],
      "name": "ApprovalForAll",
      "type": "event"
    },
    {
      "anonymous": false,
      "inputs": [
        {
          "indexed": false,
          "internalType": "address",
          "name": "account",
          "type": "address"
        }
      ],
      "name": "Paused",
      "type": "event"
    },
    {
      "anonymous": false,
      "inputs": [
        {
          "indexed": true,
          "internalType": "bytes32",
          "name": "role",
          "type": "bytes32"
        },
        {
          "indexed": true,
          "internalType": "bytes32",
          "name": "previousAdminRole",
          "type": "bytes32"
        },
        {
          "indexed": true,
          "internalType": "bytes32",
          "name": "newAdminRole",
          "type": "bytes32"
        }
      ],
      "name": "RoleAdminChanged",
      "type": "event"
    },
    {
      "anonymous": false,
      "inputs": [
        {
          "indexed": true,
          "internalType": "bytes32",
          "name": "role",
          "type": "bytes32"
        },
        {
          "indexed": true,
          "internalType": "address",
          "name": "account",
          "type": "address"
        },
        {
          "indexed": true,
          "internalType": "address",
          "name": "sender",
          "type": "address"
        }
      ],
      "name": "RoleGranted",
      "type": "event"
    },
    {
      "anonymous": false,
      "inputs": [
        {
          "indexed": true,
          "internalType": "bytes32",
          "name": "role",
          "type": "bytes32"
        },
        {
          "indexed": true,
          "internalType": "address",
          "name": "account",
          "type": "address"
        },
        {
          "indexed": true,
          "internalType": "address",
          "name": "sender",
          "type": "address"
        }
      ],
      "name": "RoleRevoked",
      "type": "event"
    },
    {
      "anonymous": false,
      "inputs": [
        {
          "indexed": true,
          "internalType": "address",
          "name": "from",
          "type": "address"
        },
        {
          "indexed": true,
          "internalType": "address",
          "name": "to",
          "type": "address"
        },
        {
          "indexed": true,
          "internalType": "uint256",
          "name": "tokenId",
          "type": "uint256"
        }
      ],
      "name": "Transfer",
      "type": "event"
    },
    {
      "anonymous": false,
      "inputs": [
        {
          "indexed": false,
          "internalType": "address",
          "name": "account",
          "type": "address"
        }
      ],
      "name": "Unpaused",
      "type": "event"
    },
    {
      "inputs": [],
      "name": "DEFAULT_ADMIN_ROLE",
      "outputs": [
        {
          "internalType": "bytes32",
          "name": "",
          "type": "bytes32"
        }
      ],
      "stateMutability": "view",
      "type": "function"
    },
    {
      "inputs": [],
      "name": "MODERATOR_ROLE",
      "outputs": [
        {
          "internalType": "bytes32",
          "name": "",
          "type": "bytes32"
        }
      ],
      "stateMutability": "view",
      "type": "function"
    },
    {
      "inputs": [],
      "name": "PAUSER_ROLE",
      "outputs": [
        {
          "internalType": "bytes32",
          "name": "",
          "type": "bytes32"
        }
      ],
      "stateMutability": "view",
      "type": "function"
    },
    {
      "inputs": [
        {
          "internalType": "address",
          "name": "to",
          "type": "address"
        },
        {
          "internalType": "uint256",
          "name": "tokenId",
          "type": "uint256"
        }
      ],
      "name": "approve",
      "outputs": [],
      "stateMutability": "nonpayable",
      "type": "function"
    },
    {
      "inputs": [
        {
          "internalType": "address",
          "name": "owner",
          "type": "address"
        }
      ],
      "name": "balanceOf",
      "outputs": [
        {
          "internalType": "uint256",
          "name": "",
          "type": "uint256"
        }
      ],
      "stateMutability": "view",
      "type": "function"
    },
    {
      "inputs": [
        {
          "internalType": "uint256",
          "name": "tokenId",
          "type": "uint256"
        }
      ],
      "name": "burn",
      "outputs": [],
      "stateMutability": "nonpayable",
      "type": "function"
    },
    {
      "inputs": [
        {
          "internalType": "uint256",
          "name": "tokenId",
          "type": "uint256"
        }
      ],
      "name": "censure",
      "outputs": [],
      "stateMutability": "nonpayable",
      "type": "function"
    },
    {
      "inputs": [
        {
          "internalType": "uint256",
          "name": "",
          "type": "uint256"
        }
      ],
      "name": "contentMap",
      "outputs": [
        {
          "internalType": "string",
          "name": "",
          "type": "string"
        }
      ],
      "stateMutability": "view",
      "type": "function"
    },
    {
      "inputs": [
        {
          "internalType": "uint256",
          "name": "tokenId",
          "type": "uint256"
        }
      ],
      "name": "downvoteToken",
      "outputs": [],
      "stateMutability": "nonpayable",
      "type": "function"
    },
    {
      "inputs": [
        {
          "internalType": "uint256",
          "name": "tokenId",
          "type": "uint256"
        }
      ],
      "name": "getApproved",
      "outputs": [
        {
          "internalType": "address",
          "name": "",
          "type": "address"
        }
      ],
      "stateMutability": "view",
      "type": "function"
    },
    {
      "inputs": [
        {
          "internalType": "bytes32",
          "name": "role",
          "type": "bytes32"
        }
      ],
      "name": "getRoleAdmin",
      "outputs": [
        {
          "internalType": "bytes32",
          "name": "",
          "type": "bytes32"
        }
      ],
      "stateMutability": "view",
      "type": "function"
    },
    {
      "inputs": [
        {
          "internalType": "bytes32",
          "name": "role",
          "type": "bytes32"
        },
        {
          "internalType": "address",
          "name": "account",
          "type": "address"
        }
      ],
      "name": "grantRole",
      "outputs": [],
      "stateMutability": "nonpayable",
      "type": "function"
    },
    {
      "inputs": [
        {
          "internalType": "bytes32",
          "name": "role",
          "type": "bytes32"
        },
        {
          "internalType": "address",
          "name": "account",
          "type": "address"
        }
      ],
      "name": "hasRole",
      "outputs": [
        {
          "internalType": "bool",
          "name": "",
          "type": "bool"
        }
      ],
      "stateMutability": "view",
      "type": "function"
    },
    {
      "inputs": [
        {
          "internalType": "address",
          "name": "owner",
          "type": "address"
        },
        {
          "internalType": "address",
          "name": "operator",
          "type": "address"
        }
      ],
      "name": "isApprovedForAll",
      "outputs": [
        {
          "internalType": "bool",
          "name": "",
          "type": "bool"
        }
      ],
      "stateMutability": "view",
      "type": "function"
    },
    {
      "inputs": [],
      "name": "name",
      "outputs": [
        {
          "internalType": "string",
          "name": "",
          "type": "string"
        }
      ],
      "stateMutability": "view",
      "type": "function"
    },
    {
      "inputs": [
        {
          "internalType": "uint256",
          "name": "tokenId",
          "type": "uint256"
        }
      ],
      "name": "ownerOf",
      "outputs": [
        {
          "internalType": "address",
          "name": "",
          "type": "address"
        }
      ],
      "stateMutability": "view",
      "type": "function"
    },
    {
      "inputs": [],
      "name": "pause",
      "outputs": [],
      "stateMutability": "nonpayable",
      "type": "function"
    },
    {
      "inputs": [],
      "name": "paused",
      "outputs": [
        {
          "internalType": "bool",
          "name": "",
          "type": "bool"
        }
      ],
      "stateMutability": "view",
      "type": "function"
    },
    {
      "inputs": [],
      "name": "pendingWithdrawals",
      "outputs": [
        {
          "internalType": "uint256",
          "name": "",
          "type": "uint256"
        }
      ],
      "stateMutability": "view",
      "type": "function"
    },
    {
      "inputs": [
        {
          "internalType": "string",
          "name": "content",
          "type": "string"
        }
      ],
      "name": "publishMint",
      "outputs": [],
      "stateMutability": "payable",
      "type": "function"
    },
    {
      "inputs": [
        {
          "internalType": "bytes32",
          "name": "role",
          "type": "bytes32"
        },
        {
          "internalType": "address",
          "name": "account",
          "type": "address"
        }
      ],
      "name": "renounceRole",
      "outputs": [],
      "stateMutability": "nonpayable",
      "type": "function"
    },
    {
      "inputs": [
        {
          "internalType": "bytes32",
          "name": "role",
          "type": "bytes32"
        },
        {
          "internalType": "address",
          "name": "account",
          "type": "address"
        }
      ],
      "name": "revokeRole",
      "outputs": [],
      "stateMutability": "nonpayable",
      "type": "function"
    },
    {
      "inputs": [
        {
          "internalType": "address",
          "name": "from",
          "type": "address"
        },
        {
          "internalType": "address",
          "name": "to",
          "type": "address"
        },
        {
          "internalType": "uint256",
          "name": "tokenId",
          "type": "uint256"
        }
      ],
      "name": "safeTransferFrom",
      "outputs": [],
      "stateMutability": "nonpayable",
      "type": "function"
    },
    {
      "inputs": [
        {
          "internalType": "address",
          "name": "from",
          "type": "address"
        },
        {
          "internalType": "address",
          "name": "to",
          "type": "address"
        },
        {
          "internalType": "uint256",
          "name": "tokenId",
          "type": "uint256"
        },
        {
          "internalType": "bytes",
          "name": "_data",
          "type": "bytes"
        }
      ],
      "name": "safeTransferFrom",
      "outputs": [],
      "stateMutability": "nonpayable",
      "type": "function"
    },
    {
      "inputs": [
        {
          "internalType": "address",
          "name": "operator",
          "type": "address"
        },
        {
          "internalType": "bool",
          "name": "approved",
          "type": "bool"
        }
      ],
      "name": "setApprovalForAll",
      "outputs": [],
      "stateMutability": "nonpayable",
      "type": "function"
    },
    {
      "inputs": [
        {
          "internalType": "string",
          "name": "newBaseURI",
          "type": "string"
        }
      ],
      "name": "setBaseURI",
      "outputs": [],
      "stateMutability": "nonpayable",
      "type": "function"
    },
    {
      "inputs": [
        {
          "internalType": "uint256",
          "name": "newMinPrice",
          "type": "uint256"
        }
      ],
      "name": "setMinPrice",
      "outputs": [],
      "stateMutability": "nonpayable",
      "type": "function"
    },
    {
      "inputs": [
        {
          "internalType": "bytes4",
          "name": "interfaceId",
          "type": "bytes4"
        }
      ],
      "name": "supportsInterface",
      "outputs": [
        {
          "internalType": "bool",
          "name": "",
          "type": "bool"
        }
      ],
      "stateMutability": "view",
      "type": "function"
    },
    {
      "inputs": [],
      "name": "symbol",
      "outputs": [
        {
          "internalType": "string",
          "name": "",
          "type": "string"
        }
      ],
      "stateMutability": "view",
      "type": "function"
    },
    {
      "inputs": [
        {
          "internalType": "uint256",
          "name": "index",
          "type": "uint256"
        }
      ],
      "name": "tokenByIndex",
      "outputs": [
        {
          "internalType": "uint256",
          "name": "",
          "type": "uint256"
        }
      ],
      "stateMutability": "view",
      "type": "function"
    },
    {
      "inputs": [
        {
          "internalType": "address",
          "name": "owner",
          "type": "address"
        },
        {
          "internalType": "uint256",
          "name": "index",
          "type": "uint256"
        }
      ],
      "name": "tokenOfOwnerByIndex",
      "outputs": [
        {
          "internalType": "uint256",
          "name": "",
          "type": "uint256"
        }
      ],
      "stateMutability": "view",
      "type": "function"
    },
    {
      "inputs": [
        {
          "internalType": "uint256",
          "name": "",
          "type": "uint256"
        },
        {
          "internalType": "address",
          "name": "",
          "type": "address"
        }
      ],
      "name": "tokenToDownvoterAddressMap",
      "outputs": [
        {
          "internalType": "bool",
          "name": "",
          "type": "bool"
        }
      ],
      "stateMutability": "view",
      "type": "function"
    },
    {
      "inputs": [
        {
          "internalType": "uint256",
          "name": "",
          "type": "uint256"
        }
      ],
      "name": "tokenToDownvotesMap",
      "outputs": [
        {
          "internalType": "uint256",
          "name": "",
          "type": "uint256"
        }
      ],
      "stateMutability": "view",
      "type": "function"
    },
    {
      "inputs": [
        {
          "internalType": "uint256",
          "name": "",
          "type": "uint256"
        },
        {
          "internalType": "address",
          "name": "",
          "type": "address"
        }
      ],
      "name": "tokenToUpvoterAddressMap",
      "outputs": [
        {
          "internalType": "bool",
          "name": "",
          "type": "bool"
        }
      ],
      "stateMutability": "view",
      "type": "function"
    },
    {
      "inputs": [
        {
          "internalType": "uint256",
          "name": "",
          "type": "uint256"
        }
      ],
      "name": "tokenToUpvotesMap",
      "outputs": [
        {
          "internalType": "uint256",
          "name": "",
          "type": "uint256"
        }
      ],
      "stateMutability": "view",
      "type": "function"
    },
    {
      "inputs": [
        {
          "internalType": "uint256",
          "name": "tokenId",
          "type": "uint256"
        }
      ],
      "name": "tokenURI",
      "outputs": [
        {
          "internalType": "string",
          "name": "",
          "type": "string"
        }
      ],
      "stateMutability": "view",
      "type": "function"
    },
    {
      "inputs": [],
      "name": "totalSupply",
      "outputs": [
        {
          "internalType": "uint256",
          "name": "",
          "type": "uint256"
        }
      ],
      "stateMutability": "view",
      "type": "function"
    },
    {
      "inputs": [
        {
          "internalType": "address",
          "name": "from",
          "type": "address"
        },
        {
          "internalType": "address",
          "name": "to",
          "type": "address"
        },
        {
          "internalType": "uint256",
          "name": "tokenId",
          "type": "uint256"
        }
      ],
      "name": "transferFrom",
      "outputs": [],
      "stateMutability": "nonpayable",
      "type": "function"
    },
    {
      "inputs": [],
      "name": "unpause",
      "outputs": [],
      "stateMutability": "nonpayable",
      "type": "function"
    },
    {
      "inputs": [
        {
          "internalType": "uint256",
          "name": "tokenId",
          "type": "uint256"
        }
      ],
      "name": "upvoteToken",
      "outputs": [],
      "stateMutability": "nonpayable",
      "type": "function"
    },
    {
      "inputs": [],
      "name": "withdraw",
      "outputs": [],
      "stateMutability": "nonpayable",
      "type": "function"
    }
  ],
  "bytecode": "0x60806040523480156200001157600080fd5b5060405162005ac238038062005ac28339818101604052810190620000379190620003c9565b838381600090805190602001906200005192919062000290565b5080600190805190602001906200006a92919062000290565b5050506000600b60006101000a81548160ff0219169083151502179055506200009d6000801b336200012b60201b60201c565b620000cf7f71f3d55856e4058ed06ee057d79ada615f65cdf5f9ee88181b914225088f834f336200012b60201b60201c565b620001017f65d7a28e3265b37a6474929f336521b332c1681b933f6cb9f3376673440d862a336200012b60201b60201c565b8160138190555080601490805190602001906200012092919062000290565b505050505062000614565b6200013d82826200021d60201b60201c565b62000219576001600c600084815260200190815260200160002060000160008373ffffffffffffffffffffffffffffffffffffffff1673ffffffffffffffffffffffffffffffffffffffff16815260200190815260200160002060006101000a81548160ff021916908315150217905550620001be6200028860201b60201c565b73ffffffffffffffffffffffffffffffffffffffff168173ffffffffffffffffffffffffffffffffffffffff16837f2f8788117e7eff1d82e926ec794901d17c78024a50270940304540a733656f0d60405160405180910390a45b5050565b6000600c600084815260200190815260200160002060000160008373ffffffffffffffffffffffffffffffffffffffff1673ffffffffffffffffffffffffffffffffffffffff16815260200190815260200160002060009054906101000a900460ff16905092915050565b600033905090565b8280546200029e906200051f565b90600052602060002090601f016020900481019282620002c257600085556200030e565b82601f10620002dd57805160ff19168380011785556200030e565b828001600101855582156200030e579182015b828111156200030d578251825591602001919060010190620002f0565b5b5090506200031d919062000321565b5090565b5b808211156200033c57600081600090555060010162000322565b5090565b6000620003576200035184620004a9565b62000480565b9050828152602081018484840111156200037057600080fd5b6200037d848285620004e9565b509392505050565b600082601f8301126200039757600080fd5b8151620003a984826020860162000340565b91505092915050565b600081519050620003c381620005fa565b92915050565b60008060008060808587031215620003e057600080fd5b600085015167ffffffffffffffff811115620003fb57600080fd5b620004098782880162000385565b945050602085015167ffffffffffffffff8111156200042757600080fd5b620004358782880162000385565b93505060406200044887828801620003b2565b925050606085015167ffffffffffffffff8111156200046657600080fd5b620004748782880162000385565b91505092959194509250565b60006200048c6200049f565b90506200049a828262000555565b919050565b6000604051905090565b600067ffffffffffffffff821115620004c757620004c6620005ba565b5b620004d282620005e9565b9050602081019050919050565b6000819050919050565b60005b8381101562000509578082015181840152602081019050620004ec565b8381111562000519576000848401525b50505050565b600060028204905060018216806200053857607f821691505b602082108114156200054f576200054e6200058b565b5b50919050565b6200056082620005e9565b810181811067ffffffffffffffff82111715620005825762000581620005ba565b5b80604052505050565b7f4e487b7100000000000000000000000000000000000000000000000000000000600052602260045260246000fd5b7f4e487b7100000000000000000000000000000000000000000000000000000000600052604160045260246000fd5b6000601f19601f8301169050919050565b6200060581620004df565b81146200061157600080fd5b50565b61549e80620006246000396000f3fe6080604052600436106102465760003560e01c80636352211e11610139578063922cd4c9116100b6578063beca03d51161007a578063beca03d51461089f578063c87b56dd146108ca578063d547741f14610907578063e63ab1e914610930578063e985e9c51461095b578063f78a31531461099857610246565b8063922cd4c9146107ba57806395d89b41146107f7578063a217fddf14610822578063a22cb4651461084d578063b88d4fde1461087657610246565b80638072d9e5116100fd5780638072d9e5146106d7578063815dcecc1461071457806381b3f1de1461073d5780638456cb591461076657806391d148541461077d57610246565b80636352211e146105cc57806365f5ecbc146106095780636e7845f41461064657806370a082311461066f578063797669c9146106ac57610246565b806336568abe116101c757806342966c681161018b57806342966c68146104e95780634f6ccce71461051257806355f804b31461054f5780635c975abb146105785780635ea8cd12146105a357610246565b806336568abe1461044d57806339f22e7d146104765780633ccfd60b146104925780633f4ba83a146104a957806342842e0e146104c057610246565b806318160ddd1161020e57806318160ddd1461035657806323b872dd14610381578063248a9ca3146103aa5780632f2ff15d146103e75780632f745c591461041057610246565b806301ffc9a71461024b57806306fdde0314610288578063081812fc146102b3578063095ea7b3146102f05780630d4f3d3014610319575b600080fd5b34801561025757600080fd5b50610272600480360381019061026d9190613e83565b6109d5565b60405161027f91906144f3565b60405180910390f35b34801561029457600080fd5b5061029d6109e7565b6040516102aa9190614529565b60405180910390f35b3480156102bf57600080fd5b506102da60048036038101906102d59190613f16565b610a79565b6040516102e7919061448c565b60405180910390f35b3480156102fc57600080fd5b5061031760048036038101906103129190613de2565b610afe565b005b34801561032557600080fd5b50610340600480360381019061033b9190613f3f565b610c16565b60405161034d91906144f3565b60405180910390f35b34801561036257600080fd5b5061036b610c45565b604051610378919061488b565b60405180910390f35b34801561038d57600080fd5b506103a860048036038101906103a39190613cdc565b610c52565b005b3480156103b657600080fd5b506103d160048036038101906103cc9190613e1e565b610cb2565b6040516103de919061450e565b60405180910390f35b3480156103f357600080fd5b5061040e60048036038101906104099190613e47565b610cd2565b005b34801561041c57600080fd5b5061043760048036038101906104329190613de2565b610cfb565b604051610444919061488b565b60405180910390f35b34801561045957600080fd5b50610474600480360381019061046f9190613e47565b610da0565b005b610490600480360381019061048b9190613ed5565b610e23565b005b34801561049e57600080fd5b506104a7610f17565b005b3480156104b557600080fd5b506104be610ff1565b005b3480156104cc57600080fd5b506104e760048036038101906104e29190613cdc565b61102e565b005b3480156104f557600080fd5b50610510600480360381019061050b9190613f16565b61104e565b005b34801561051e57600080fd5b5061053960048036038101906105349190613f16565b6110aa565b604051610546919061488b565b60405180910390f35b34801561055b57600080fd5b5061057660048036038101906105719190613ed5565b611141565b005b34801561058457600080fd5b5061058d6111d6565b60405161059a91906144f3565b60405180910390f35b3480156105af57600080fd5b506105ca60048036038101906105c59190613f16565b6111ed565b005b3480156105d857600080fd5b506105f360048036038101906105ee9190613f16565b611272565b604051610600919061448c565b60405180910390f35b34801561061557600080fd5b50610630600480360381019061062b9190613f3f565b611324565b60405161063d91906144f3565b60405180910390f35b34801561065257600080fd5b5061066d60048036038101906106689190613f16565b611353565b005b34801561067b57600080fd5b5061069660048036038101906106919190613c77565b611521565b6040516106a3919061488b565b60405180910390f35b3480156106b857600080fd5b506106c16115d9565b6040516106ce919061450e565b60405180910390f35b3480156106e357600080fd5b506106fe60048036038101906106f99190613f16565b6115fd565b60405161070b9190614529565b60405180910390f35b34801561072057600080fd5b5061073b60048036038101906107369190613f16565b61169d565b005b34801561074957600080fd5b50610764600480360381019061075f9190613f16565b611826565b005b34801561077257600080fd5b5061077b6119af565b005b34801561078957600080fd5b506107a4600480360381019061079f9190613e47565b6119ec565b6040516107b191906144f3565b60405180910390f35b3480156107c657600080fd5b506107e160048036038101906107dc9190613f16565b611a57565b6040516107ee919061488b565b60405180910390f35b34801561080357600080fd5b5061080c611a6f565b6040516108199190614529565b60405180910390f35b34801561082e57600080fd5b50610837611b01565b604051610844919061450e565b60405180910390f35b34801561085957600080fd5b50610874600480360381019061086f9190613da6565b611b08565b005b34801561088257600080fd5b5061089d60048036038101906108989190613d2b565b611b1e565b005b3480156108ab57600080fd5b506108b4611b80565b6040516108c1919061488b565b60405180910390f35b3480156108d657600080fd5b506108f160048036038101906108ec9190613f16565b611b86565b6040516108fe9190614529565b60405180910390f35b34801561091357600080fd5b5061092e60048036038101906109299190613e47565b611b98565b005b34801561093c57600080fd5b50610945611bc1565b604051610952919061450e565b60405180910390f35b34801561096757600080fd5b50610982600480360381019061097d9190613ca0565b611be5565b60405161098f91906144f3565b60405180910390f35b3480156109a457600080fd5b506109bf60048036038101906109ba9190613f16565b611c79565b6040516109cc919061488b565b60405180910390f35b60006109e082611c91565b9050919050565b6060600080546109f690614b6f565b80601f0160208091040260200160405190810160405280929190818152602001828054610a2290614b6f565b8015610a6f5780601f10610a4457610100808354040283529160200191610a6f565b820191906000526020600020905b815481529060010190602001808311610a5257829003601f168201915b5050505050905090565b6000610a8482611d0b565b610ac3576040517f08c379a0000000000000000000000000000000000000000000000000000000008152600401610aba9061476b565b60405180910390fd5b6004600083815260200190815260200160002060009054906101000a900473ffffffffffffffffffffffffffffffffffffffff169050919050565b6000610b0982611272565b90508073ffffffffffffffffffffffffffffffffffffffff168373ffffffffffffffffffffffffffffffffffffffff161415610b7a576040517f08c379a0000000000000000000000000000000000000000000000000000000008152600401610b71906147cb565b60405180910390fd5b8073ffffffffffffffffffffffffffffffffffffffff16610b99611d77565b73ffffffffffffffffffffffffffffffffffffffff161480610bc85750610bc781610bc2611d77565b611be5565b5b610c07576040517f08c379a0000000000000000000000000000000000000000000000000000000008152600401610bfe9061468b565b60405180910390fd5b610c118383611d7f565b505050565b60116020528160005260406000206020528060005260406000206000915091509054906101000a900460ff1681565b6000600880549050905090565b610c63610c5d611d77565b82611e38565b610ca2576040517f08c379a0000000000000000000000000000000000000000000000000000000008152600401610c99906147eb565b60405180910390fd5b610cad838383611f16565b505050565b6000600c6000838152602001908152602001600020600101549050919050565b610cdb82610cb2565b610cec81610ce7611d77565b612172565b610cf6838361220f565b505050565b6000610d0683611521565b8210610d47576040517f08c379a0000000000000000000000000000000000000000000000000000000008152600401610d3e906145ab565b60405180910390fd5b600660008473ffffffffffffffffffffffffffffffffffffffff1673ffffffffffffffffffffffffffffffffffffffff168152602001908152602001600020600083815260200190815260200160002054905092915050565b610da8611d77565b73ffffffffffffffffffffffffffffffffffffffff168173ffffffffffffffffffffffffffffffffffffffff1614610e15576040517f08c379a0000000000000000000000000000000000000000000000000000000008152600401610e0c9061486b565b60405180910390fd5b610e1f82826122f0565b5050565b610e2b6111d6565b15610e6b576040517f08c379a0000000000000000000000000000000000000000000000000000000008152600401610e629061466b565b60405180910390fd5b601354341015610eb0576040517f08c379a0000000000000000000000000000000000000000000000000000000008152600401610ea79061474b565b60405180910390fd5b3460156000828254610ec29190614970565b925050819055506000610ed5600d6123d2565b9050610ee1600d6123e0565b610eeb33826123f6565b81600e60008381526020019081526020016000209080519060200190610f12929190613a46565b505050565b610f1f6111d6565b15610f5f576040517f08c379a0000000000000000000000000000000000000000000000000000000008152600401610f569061466b565b60405180910390fd5b7f71f3d55856e4058ed06ee057d79ada615f65cdf5f9ee88181b914225088f834f610f9181610f8c611d77565b612172565b60003390506000601554905060006015819055508173ffffffffffffffffffffffffffffffffffffffff166108fc829081150290604051600060405180830381858888f19350505050158015610feb573d6000803e3d6000fd5b50505050565b7f65d7a28e3265b37a6474929f336521b332c1681b933f6cb9f3376673440d862a6110238161101e611d77565b612172565b61102b612414565b50565b61104983838360405180602001604052806000815250611b1e565b505050565b61105f611059611d77565b82611e38565b61109e576040517f08c379a00000000000000000000000000000000000000000000000000000000081526004016110959061484b565b60405180910390fd5b6110a7816124b6565b50565b60006110b4610c45565b82106110f5576040517f08c379a00000000000000000000000000000000000000000000000000000000081526004016110ec9061482b565b60405180910390fd5b6008828154811061112f577f4e487b7100000000000000000000000000000000000000000000000000000000600052603260045260246000fd5b90600052602060002001549050919050565b6111496111d6565b15611189576040517f08c379a00000000000000000000000000000000000000000000000000000000081526004016111809061466b565b60405180910390fd5b7f71f3d55856e4058ed06ee057d79ada615f65cdf5f9ee88181b914225088f834f6111bb816111b6611d77565b612172565b81601490805190602001906111d1929190613a46565b505050565b6000600b60009054906101000a900460ff16905090565b6111f56111d6565b15611235576040517f08c379a000000000000000000000000000000000000000000000000000000000815260040161122c9061466b565b60405180910390fd5b7f71f3d55856e4058ed06ee057d79ada615f65cdf5f9ee88181b914225088f834f61126781611262611d77565b612172565b816013819055505050565b6000806002600084815260200190815260200160002060009054906101000a900473ffffffffffffffffffffffffffffffffffffffff169050600073ffffffffffffffffffffffffffffffffffffffff168173ffffffffffffffffffffffffffffffffffffffff16141561131b576040517f08c379a0000000000000000000000000000000000000000000000000000000008152600401611312906146cb565b60405180910390fd5b80915050919050565b60126020528160005260406000206020528060005260406000206000915091509054906101000a900460ff1681565b61135b6111d6565b1561139b576040517f08c379a00000000000000000000000000000000000000000000000000000000081526004016113929061466b565b60405180910390fd5b7f71f3d55856e4058ed06ee057d79ada615f65cdf5f9ee88181b914225088f834f6113cd816113c8611d77565b612172565b6113d682611272565b506000600f6000848152602001908152602001600020549050600a811015611433576040517f08c379a000000000000000000000000000000000000000000000000000000000815260040161142a9061480b565b60405180910390fd5b600060106000858152602001908152602001600020549050600a81101561148f576040517f08c379a00000000000000000000000000000000000000000000000000000000081526004016114869061454b565b60405180910390fd5b6000828261149d91906149c6565b905060028110156114e3576040517f08c379a00000000000000000000000000000000000000000000000000000000081526004016114da906146eb565b60405180910390fd5b60405180602001604052806000815250600e60008781526020019081526020016000209080519060200190611519929190613a46565b505050505050565b60008073ffffffffffffffffffffffffffffffffffffffff168273ffffffffffffffffffffffffffffffffffffffff161415611592576040517f08c379a0000000000000000000000000000000000000000000000000000000008152600401611589906146ab565b60405180910390fd5b600360008373ffffffffffffffffffffffffffffffffffffffff1673ffffffffffffffffffffffffffffffffffffffff168152602001908152602001600020549050919050565b7f71f3d55856e4058ed06ee057d79ada615f65cdf5f9ee88181b914225088f834f81565b600e602052806000526040600020600091509050805461161c90614b6f565b80601f016020809104026020016040519081016040528092919081815260200182805461164890614b6f565b80156116955780601f1061166a57610100808354040283529160200191611695565b820191906000526020600020905b81548152906001019060200180831161167857829003601f168201915b505050505081565b6116a56111d6565b156116e5576040517f08c379a00000000000000000000000000000000000000000000000000000000081526004016116dc9061466b565b60405180910390fd5b6116ee81611272565b50600033905060006012600084815260200190815260200160002060008373ffffffffffffffffffffffffffffffffffffffff1673ffffffffffffffffffffffffffffffffffffffff16815260200190815260200160002060009054906101000a900460ff16905080156012600085815260200190815260200160002060008473ffffffffffffffffffffffffffffffffffffffff1673ffffffffffffffffffffffffffffffffffffffff16815260200190815260200160002060006101000a81548160ff02191690831515021790555080156117f55760016010600085815260200190815260200160002060008282546117e99190614a51565b92505081905550611821565b60016010600085815260200190815260200160002060008282546118199190614970565b925050819055505b505050565b61182e6111d6565b1561186e576040517f08c379a00000000000000000000000000000000000000000000000000000000081526004016118659061466b565b60405180910390fd5b61187781611272565b50600033905060006011600084815260200190815260200160002060008373ffffffffffffffffffffffffffffffffffffffff1673ffffffffffffffffffffffffffffffffffffffff16815260200190815260200160002060009054906101000a900460ff16905080156011600085815260200190815260200160002060008473ffffffffffffffffffffffffffffffffffffffff1673ffffffffffffffffffffffffffffffffffffffff16815260200190815260200160002060006101000a81548160ff021916908315150217905550801561197e576001600f600085815260200190815260200160002060008282546119729190614a51565b925050819055506119aa565b6001600f600085815260200190815260200160002060008282546119a29190614970565b925050819055505b505050565b7f65d7a28e3265b37a6474929f336521b332c1681b933f6cb9f3376673440d862a6119e1816119dc611d77565b612172565b6119e96124c2565b50565b6000600c600084815260200190815260200160002060000160008373ffffffffffffffffffffffffffffffffffffffff1673ffffffffffffffffffffffffffffffffffffffff16815260200190815260200160002060009054906101000a900460ff16905092915050565b60106020528060005260406000206000915090505481565b606060018054611a7e90614b6f565b80601f0160208091040260200160405190810160405280929190818152602001828054611aaa90614b6f565b8015611af75780601f10611acc57610100808354040283529160200191611af7565b820191906000526020600020905b815481529060010190602001808311611ada57829003601f168201915b5050505050905090565b6000801b81565b611b1a611b13611d77565b8383612565565b5050565b611b2f611b29611d77565b83611e38565b611b6e576040517f08c379a0000000000000000000000000000000000000000000000000000000008152600401611b65906147eb565b60405180910390fd5b611b7a848484846126d2565b50505050565b60155481565b6060611b918261272e565b9050919050565b611ba182610cb2565b611bb281611bad611d77565b612172565b611bbc83836122f0565b505050565b7f65d7a28e3265b37a6474929f336521b332c1681b933f6cb9f3376673440d862a81565b6000600560008473ffffffffffffffffffffffffffffffffffffffff1673ffffffffffffffffffffffffffffffffffffffff16815260200190815260200160002060008373ffffffffffffffffffffffffffffffffffffffff1673ffffffffffffffffffffffffffffffffffffffff16815260200190815260200160002060009054906101000a900460ff16905092915050565b600f6020528060005260406000206000915090505481565b60007f7965db0b000000000000000000000000000000000000000000000000000000007bffffffffffffffffffffffffffffffffffffffffffffffffffffffff1916827bffffffffffffffffffffffffffffffffffffffffffffffffffffffff19161480611d045750611d0382612880565b5b9050919050565b60008073ffffffffffffffffffffffffffffffffffffffff166002600084815260200190815260200160002060009054906101000a900473ffffffffffffffffffffffffffffffffffffffff1673ffffffffffffffffffffffffffffffffffffffff1614159050919050565b600033905090565b816004600083815260200190815260200160002060006101000a81548173ffffffffffffffffffffffffffffffffffffffff021916908373ffffffffffffffffffffffffffffffffffffffff160217905550808273ffffffffffffffffffffffffffffffffffffffff16611df283611272565b73ffffffffffffffffffffffffffffffffffffffff167f8c5be1e5ebec7d5bd14f71427d1e84f3dd0314c0f7b2291e5b200ac8c7c3b92560405160405180910390a45050565b6000611e4382611d0b565b611e82576040517f08c379a0000000000000000000000000000000000000000000000000000000008152600401611e799061464b565b60405180910390fd5b6000611e8d83611272565b90508073ffffffffffffffffffffffffffffffffffffffff168473ffffffffffffffffffffffffffffffffffffffff161480611efc57508373ffffffffffffffffffffffffffffffffffffffff16611ee484610a79565b73ffffffffffffffffffffffffffffffffffffffff16145b80611f0d5750611f0c8185611be5565b5b91505092915050565b8273ffffffffffffffffffffffffffffffffffffffff16611f3682611272565b73ffffffffffffffffffffffffffffffffffffffff1614611f8c576040517f08c379a0000000000000000000000000000000000000000000000000000000008152600401611f839061478b565b60405180910390fd5b600073ffffffffffffffffffffffffffffffffffffffff168273ffffffffffffffffffffffffffffffffffffffff161415611ffc576040517f08c379a0000000000000000000000000000000000000000000000000000000008152600401611ff39061460b565b60405180910390fd5b6120078383836128fa565b612012600082611d7f565b6001600360008573ffffffffffffffffffffffffffffffffffffffff1673ffffffffffffffffffffffffffffffffffffffff16815260200190815260200160002060008282546120629190614a51565b925050819055506001600360008473ffffffffffffffffffffffffffffffffffffffff1673ffffffffffffffffffffffffffffffffffffffff16815260200190815260200160002060008282546120b99190614970565b92505081905550816002600083815260200190815260200160002060006101000a81548173ffffffffffffffffffffffffffffffffffffffff021916908373ffffffffffffffffffffffffffffffffffffffff160217905550808273ffffffffffffffffffffffffffffffffffffffff168473ffffffffffffffffffffffffffffffffffffffff167fddf252ad1be2c89b69c2b068fc378daa952ba7f163c4a11628f55a4df523b3ef60405160405180910390a4505050565b61217c82826119ec565b61220b576121a18173ffffffffffffffffffffffffffffffffffffffff166014612952565b6121af8360001c6020612952565b6040516020016121c0929190614452565b6040516020818303038152906040526040517f08c379a00000000000000000000000000000000000000000000000000000000081526004016122029190614529565b60405180910390fd5b5050565b61221982826119ec565b6122ec576001600c600084815260200190815260200160002060000160008373ffffffffffffffffffffffffffffffffffffffff1673ffffffffffffffffffffffffffffffffffffffff16815260200190815260200160002060006101000a81548160ff021916908315150217905550612291611d77565b73ffffffffffffffffffffffffffffffffffffffff168173ffffffffffffffffffffffffffffffffffffffff16837f2f8788117e7eff1d82e926ec794901d17c78024a50270940304540a733656f0d60405160405180910390a45b5050565b6122fa82826119ec565b156123ce576000600c600084815260200190815260200160002060000160008373ffffffffffffffffffffffffffffffffffffffff1673ffffffffffffffffffffffffffffffffffffffff16815260200190815260200160002060006101000a81548160ff021916908315150217905550612373611d77565b73ffffffffffffffffffffffffffffffffffffffff168173ffffffffffffffffffffffffffffffffffffffff16837ff6391f5c32d9c69d2a47ea670b442974b53935d1edc7fd64eb21e047a839171b60405160405180910390a45b5050565b600081600001549050919050565b6001816000016000828254019250508190555050565b612410828260405180602001604052806000815250612c4c565b5050565b61241c6111d6565b61245b576040517f08c379a00000000000000000000000000000000000000000000000000000000081526004016124529061458b565b60405180910390fd5b6000600b60006101000a81548160ff0219169083151502179055507f5db9ee0a495bf2e6ff9c91a7834c1ba4fdd244a5e8aa4e537bd38aeae4b073aa61249f611d77565b6040516124ac919061448c565b60405180910390a1565b6124bf81612ca7565b50565b6124ca6111d6565b1561250a576040517f08c379a00000000000000000000000000000000000000000000000000000000081526004016125019061466b565b60405180910390fd5b6001600b60006101000a81548160ff0219169083151502179055507f62e78cea01bee320cd4e420270b5ea74000d11b0c9f74754ebdbfc544b05a25861254e611d77565b60405161255b919061448c565b60405180910390a1565b8173ffffffffffffffffffffffffffffffffffffffff168373ffffffffffffffffffffffffffffffffffffffff1614156125d4576040517f08c379a00000000000000000000000000000000000000000000000000000000081526004016125cb9061462b565b60405180910390fd5b80600560008573ffffffffffffffffffffffffffffffffffffffff1673ffffffffffffffffffffffffffffffffffffffff16815260200190815260200160002060008473ffffffffffffffffffffffffffffffffffffffff1673ffffffffffffffffffffffffffffffffffffffff16815260200190815260200160002060006101000a81548160ff0219169083151502179055508173ffffffffffffffffffffffffffffffffffffffff168373ffffffffffffffffffffffffffffffffffffffff167f17307eab39ab6107e8899845ad3d59bd9653f200f220920489ca2b5937696c31836040516126c591906144f3565b60405180910390a3505050565b6126dd848484611f16565b6126e984848484612cfa565b612728576040517f08c379a000000000000000000000000000000000000000000000000000000000815260040161271f906145cb565b60405180910390fd5b50505050565b606061273982611d0b565b612778576040517f08c379a000000000000000000000000000000000000000000000000000000000815260040161276f9061472b565b60405180910390fd5b6000600a6000848152602001908152602001600020805461279890614b6f565b80601f01602080910402602001604051908101604052809291908181526020018280546127c490614b6f565b80156128115780601f106127e657610100808354040283529160200191612811565b820191906000526020600020905b8154815290600101906020018083116127f457829003601f168201915b505050505090506000612822612e91565b905060008151141561283857819250505061287b565b60008251111561286d57808260405160200161285592919061442e565b6040516020818303038152906040529250505061287b565b61287684612f23565b925050505b919050565b60007f780e9d63000000000000000000000000000000000000000000000000000000007bffffffffffffffffffffffffffffffffffffffffffffffffffffffff1916827bffffffffffffffffffffffffffffffffffffffffffffffffffffffff191614806128f357506128f282612fca565b5b9050919050565b6129026111d6565b15612942576040517f08c379a00000000000000000000000000000000000000000000000000000000081526004016129399061466b565b60405180910390fd5b61294d8383836130ac565b505050565b60606000600283600261296591906149f7565b61296f9190614970565b67ffffffffffffffff8111156129ae577f4e487b7100000000000000000000000000000000000000000000000000000000600052604160045260246000fd5b6040519080825280601f01601f1916602001820160405280156129e05781602001600182028036833780820191505090505b5090507f300000000000000000000000000000000000000000000000000000000000000081600081518110612a3e577f4e487b7100000000000000000000000000000000000000000000000000000000600052603260045260246000fd5b60200101907effffffffffffffffffffffffffffffffffffffffffffffffffffffffffffff1916908160001a9053507f780000000000000000000000000000000000000000000000000000000000000081600181518110612ac8577f4e487b7100000000000000000000000000000000000000000000000000000000600052603260045260246000fd5b60200101907effffffffffffffffffffffffffffffffffffffffffffffffffffffffffffff1916908160001a90535060006001846002612b0891906149f7565b612b129190614970565b90505b6001811115612bfe577f3031323334353637383961626364656600000000000000000000000000000000600f861660108110612b7a577f4e487b7100000000000000000000000000000000000000000000000000000000600052603260045260246000fd5b1a60f81b828281518110612bb7577f4e487b7100000000000000000000000000000000000000000000000000000000600052603260045260246000fd5b60200101907effffffffffffffffffffffffffffffffffffffffffffffffffffffffffffff1916908160001a905350600485901c945080612bf790614b45565b9050612b15565b5060008414612c42576040517f08c379a0000000000000000000000000000000000000000000000000000000008152600401612c399061456b565b60405180910390fd5b8091505092915050565b612c5683836131c0565b612c636000848484612cfa565b612ca2576040517f08c379a0000000000000000000000000000000000000000000000000000000008152600401612c99906145cb565b60405180910390fd5b505050565b612cb08161338e565b6000600a60008381526020019081526020016000208054612cd090614b6f565b905014612cf757600a60008281526020019081526020016000206000612cf69190613acc565b5b50565b6000612d1b8473ffffffffffffffffffffffffffffffffffffffff1661349f565b15612e84578373ffffffffffffffffffffffffffffffffffffffff1663150b7a02612d44611d77565b8786866040518563ffffffff1660e01b8152600401612d6694939291906144a7565b602060405180830381600087803b158015612d8057600080fd5b505af1925050508015612db157506040513d601f19601f82011682018060405250810190612dae9190613eac565b60015b612e34573d8060008114612de1576040519150601f19603f3d011682016040523d82523d6000602084013e612de6565b606091505b50600081511415612e2c576040517f08c379a0000000000000000000000000000000000000000000000000000000008152600401612e23906145cb565b60405180910390fd5b805181602001fd5b63150b7a0260e01b7bffffffffffffffffffffffffffffffffffffffffffffffffffffffff1916817bffffffffffffffffffffffffffffffffffffffffffffffffffffffff191614915050612e89565b600190505b949350505050565b606060148054612ea090614b6f565b80601f0160208091040260200160405190810160405280929190818152602001828054612ecc90614b6f565b8015612f195780601f10612eee57610100808354040283529160200191612f19565b820191906000526020600020905b815481529060010190602001808311612efc57829003601f168201915b5050505050905090565b6060612f2e82611d0b565b612f6d576040517f08c379a0000000000000000000000000000000000000000000000000000000008152600401612f64906147ab565b60405180910390fd5b6000612f77612e91565b90506000815111612f975760405180602001604052806000815250612fc2565b80612fa1846134b2565b604051602001612fb292919061442e565b6040516020818303038152906040525b915050919050565b60007f80ac58cd000000000000000000000000000000000000000000000000000000007bffffffffffffffffffffffffffffffffffffffffffffffffffffffff1916827bffffffffffffffffffffffffffffffffffffffffffffffffffffffff1916148061309557507f5b5e139f000000000000000000000000000000000000000000000000000000007bffffffffffffffffffffffffffffffffffffffffffffffffffffffff1916827bffffffffffffffffffffffffffffffffffffffffffffffffffffffff1916145b806130a557506130a48261365f565b5b9050919050565b6130b78383836136c9565b600073ffffffffffffffffffffffffffffffffffffffff168373ffffffffffffffffffffffffffffffffffffffff1614156130fa576130f5816136ce565b613139565b8173ffffffffffffffffffffffffffffffffffffffff168373ffffffffffffffffffffffffffffffffffffffff1614613138576131378382613717565b5b5b600073ffffffffffffffffffffffffffffffffffffffff168273ffffffffffffffffffffffffffffffffffffffff16141561317c5761317781613884565b6131bb565b8273ffffffffffffffffffffffffffffffffffffffff168273ffffffffffffffffffffffffffffffffffffffff16146131ba576131b982826139c7565b5b5b505050565b600073ffffffffffffffffffffffffffffffffffffffff168273ffffffffffffffffffffffffffffffffffffffff161415613230576040517f08c379a00000000000000000000000000000000000000000000000000000000081526004016132279061470b565b60405180910390fd5b61323981611d0b565b15613279576040517f08c379a0000000000000000000000000000000000000000000000000000000008152600401613270906145eb565b60405180910390fd5b613285600083836128fa565b6001600360008473ffffffffffffffffffffffffffffffffffffffff1673ffffffffffffffffffffffffffffffffffffffff16815260200190815260200160002060008282546132d59190614970565b92505081905550816002600083815260200190815260200160002060006101000a81548173ffffffffffffffffffffffffffffffffffffffff021916908373ffffffffffffffffffffffffffffffffffffffff160217905550808273ffffffffffffffffffffffffffffffffffffffff16600073ffffffffffffffffffffffffffffffffffffffff167fddf252ad1be2c89b69c2b068fc378daa952ba7f163c4a11628f55a4df523b3ef60405160405180910390a45050565b600061339982611272565b90506133a7816000846128fa565b6133b2600083611d7f565b6001600360008373ffffffffffffffffffffffffffffffffffffffff1673ffffffffffffffffffffffffffffffffffffffff16815260200190815260200160002060008282546134029190614a51565b925050819055506002600083815260200190815260200160002060006101000a81549073ffffffffffffffffffffffffffffffffffffffff021916905581600073ffffffffffffffffffffffffffffffffffffffff168273ffffffffffffffffffffffffffffffffffffffff167fddf252ad1be2c89b69c2b068fc378daa952ba7f163c4a11628f55a4df523b3ef60405160405180910390a45050565b600080823b905060008111915050919050565b606060008214156134fa576040518060400160405280600181526020017f3000000000000000000000000000000000000000000000000000000000000000815250905061365a565b600082905060005b6000821461352c57808061351590614bd2565b915050600a8261352591906149c6565b9150613502565b60008167ffffffffffffffff81111561356e577f4e487b7100000000000000000000000000000000000000000000000000000000600052604160045260246000fd5b6040519080825280601f01601f1916602001820160405280156135a05781602001600182028036833780820191505090505b5090505b60008514613653576001826135b99190614a51565b9150600a856135c89190614c1b565b60306135d49190614970565b60f81b818381518110613610577f4e487b7100000000000000000000000000000000000000000000000000000000600052603260045260246000fd5b60200101907effffffffffffffffffffffffffffffffffffffffffffffffffffffffffffff1916908160001a905350600a8561364c91906149c6565b94506135a4565b8093505050505b919050565b60007f01ffc9a7000000000000000000000000000000000000000000000000000000007bffffffffffffffffffffffffffffffffffffffffffffffffffffffff1916827bffffffffffffffffffffffffffffffffffffffffffffffffffffffff1916149050919050565b505050565b6008805490506009600083815260200190815260200160002081905550600881908060018154018082558091505060019003906000526020600020016000909190919091505550565b6000600161372484611521565b61372e9190614a51565b9050600060076000848152602001908152602001600020549050818114613813576000600660008673ffffffffffffffffffffffffffffffffffffffff1673ffffffffffffffffffffffffffffffffffffffff168152602001908152602001600020600084815260200190815260200160002054905080600660008773ffffffffffffffffffffffffffffffffffffffff1673ffffffffffffffffffffffffffffffffffffffff168152602001908152602001600020600084815260200190815260200160002081905550816007600083815260200190815260200160002081905550505b6007600084815260200190815260200160002060009055600660008573ffffffffffffffffffffffffffffffffffffffff1673ffffffffffffffffffffffffffffffffffffffff16815260200190815260200160002060008381526020019081526020016000206000905550505050565b600060016008805490506138989190614a51565b90506000600960008481526020019081526020016000205490506000600883815481106138ee577f4e487b7100000000000000000000000000000000000000000000000000000000600052603260045260246000fd5b906000526020600020015490508060088381548110613936577f4e487b7100000000000000000000000000000000000000000000000000000000600052603260045260246000fd5b9060005260206000200181905550816009600083815260200190815260200160002081905550600960008581526020019081526020016000206000905560088054806139ab577f4e487b7100000000000000000000000000000000000000000000000000000000600052603160045260246000fd5b6001900381819060005260206000200160009055905550505050565b60006139d283611521565b905081600660008573ffffffffffffffffffffffffffffffffffffffff1673ffffffffffffffffffffffffffffffffffffffff168152602001908152602001600020600083815260200190815260200160002081905550806007600084815260200190815260200160002081905550505050565b828054613a5290614b6f565b90600052602060002090601f016020900481019282613a745760008555613abb565b82601f10613a8d57805160ff1916838001178555613abb565b82800160010185558215613abb579182015b82811115613aba578251825591602001919060010190613a9f565b5b509050613ac89190613b0c565b5090565b508054613ad890614b6f565b6000825580601f10613aea5750613b09565b601f016020900490600052602060002090810190613b089190613b0c565b5b50565b5b80821115613b25576000816000905550600101613b0d565b5090565b6000613b3c613b37846148cb565b6148a6565b905082815260208101848484011115613b5457600080fd5b613b5f848285614b03565b509392505050565b6000613b7a613b75846148fc565b6148a6565b905082815260208101848484011115613b9257600080fd5b613b9d848285614b03565b509392505050565b600081359050613bb4816153f5565b92915050565b600081359050613bc98161540c565b92915050565b600081359050613bde81615423565b92915050565b600081359050613bf38161543a565b92915050565b600081519050613c088161543a565b92915050565b600082601f830112613c1f57600080fd5b8135613c2f848260208601613b29565b91505092915050565b600082601f830112613c4957600080fd5b8135613c59848260208601613b67565b91505092915050565b600081359050613c7181615451565b92915050565b600060208284031215613c8957600080fd5b6000613c9784828501613ba5565b91505092915050565b60008060408385031215613cb357600080fd5b6000613cc185828601613ba5565b9250506020613cd285828601613ba5565b9150509250929050565b600080600060608486031215613cf157600080fd5b6000613cff86828701613ba5565b9350506020613d1086828701613ba5565b9250506040613d2186828701613c62565b9150509250925092565b60008060008060808587031215613d4157600080fd5b6000613d4f87828801613ba5565b9450506020613d6087828801613ba5565b9350506040613d7187828801613c62565b925050606085013567ffffffffffffffff811115613d8e57600080fd5b613d9a87828801613c0e565b91505092959194509250565b60008060408385031215613db957600080fd5b6000613dc785828601613ba5565b9250506020613dd885828601613bba565b9150509250929050565b60008060408385031215613df557600080fd5b6000613e0385828601613ba5565b9250506020613e1485828601613c62565b9150509250929050565b600060208284031215613e3057600080fd5b6000613e3e84828501613bcf565b91505092915050565b60008060408385031215613e5a57600080fd5b6000613e6885828601613bcf565b9250506020613e7985828601613ba5565b9150509250929050565b600060208284031215613e9557600080fd5b6000613ea384828501613be4565b91505092915050565b600060208284031215613ebe57600080fd5b6000613ecc84828501613bf9565b91505092915050565b600060208284031215613ee757600080fd5b600082013567ffffffffffffffff811115613f0157600080fd5b613f0d84828501613c38565b91505092915050565b600060208284031215613f2857600080fd5b6000613f3684828501613c62565b91505092915050565b60008060408385031215613f5257600080fd5b6000613f6085828601613c62565b9250506020613f7185828601613ba5565b9150509250929050565b613f8481614a85565b82525050565b613f9381614a97565b82525050565b613fa281614aa3565b82525050565b6000613fb38261492d565b613fbd8185614943565b9350613fcd818560208601614b12565b613fd681614d08565b840191505092915050565b6000613fec82614938565b613ff68185614954565b9350614006818560208601614b12565b61400f81614d08565b840191505092915050565b600061402582614938565b61402f8185614965565b935061403f818560208601614b12565b80840191505092915050565b6000614058601483614954565b915061406382614d19565b602082019050919050565b600061407b602083614954565b915061408682614d42565b602082019050919050565b600061409e601483614954565b91506140a982614d6b565b602082019050919050565b60006140c1602b83614954565b91506140cc82614d94565b604082019050919050565b60006140e4603283614954565b91506140ef82614de3565b604082019050919050565b6000614107601c83614954565b915061411282614e32565b602082019050919050565b600061412a602483614954565b915061413582614e5b565b604082019050919050565b600061414d601983614954565b915061415882614eaa565b602082019050919050565b6000614170602c83614954565b915061417b82614ed3565b604082019050919050565b6000614193601083614954565b915061419e82614f22565b602082019050919050565b60006141b6603883614954565b91506141c182614f4b565b604082019050919050565b60006141d9602a83614954565b91506141e482614f9a565b604082019050919050565b60006141fc602983614954565b915061420782614fe9565b604082019050919050565b600061421f601883614954565b915061422a82615038565b602082019050919050565b6000614242602083614954565b915061424d82615061565b602082019050919050565b6000614265603183614954565b91506142708261508a565b604082019050919050565b6000614288601783614954565b9150614293826150d9565b602082019050919050565b60006142ab602c83614954565b91506142b682615102565b604082019050919050565b60006142ce602983614954565b91506142d982615151565b604082019050919050565b60006142f1602f83614954565b91506142fc826151a0565b604082019050919050565b6000614314602183614954565b915061431f826151ef565b604082019050919050565b6000614337603183614954565b91506143428261523e565b604082019050919050565b600061435a601283614954565b91506143658261528d565b602082019050919050565b600061437d602c83614954565b9150614388826152b6565b604082019050919050565b60006143a0601783614965565b91506143ab82615305565b601782019050919050565b60006143c3603083614954565b91506143ce8261532e565b604082019050919050565b60006143e6601183614965565b91506143f18261537d565b601182019050919050565b6000614409602f83614954565b9150614414826153a6565b604082019050919050565b61442881614af9565b82525050565b600061443a828561401a565b9150614446828461401a565b91508190509392505050565b600061445d82614393565b9150614469828561401a565b9150614474826143d9565b9150614480828461401a565b91508190509392505050565b60006020820190506144a16000830184613f7b565b92915050565b60006080820190506144bc6000830187613f7b565b6144c96020830186613f7b565b6144d6604083018561441f565b81810360608301526144e88184613fa8565b905095945050505050565b60006020820190506145086000830184613f8a565b92915050565b60006020820190506145236000830184613f99565b92915050565b600060208201905081810360008301526145438184613fe1565b905092915050565b600060208201905081810360008301526145648161404b565b9050919050565b600060208201905081810360008301526145848161406e565b9050919050565b600060208201905081810360008301526145a481614091565b9050919050565b600060208201905081810360008301526145c4816140b4565b9050919050565b600060208201905081810360008301526145e4816140d7565b9050919050565b60006020820190508181036000830152614604816140fa565b9050919050565b600060208201905081810360008301526146248161411d565b9050919050565b6000602082019050818103600083015261464481614140565b9050919050565b6000602082019050818103600083015261466481614163565b9050919050565b6000602082019050818103600083015261468481614186565b9050919050565b600060208201905081810360008301526146a4816141a9565b9050919050565b600060208201905081810360008301526146c4816141cc565b9050919050565b600060208201905081810360008301526146e4816141ef565b9050919050565b6000602082019050818103600083015261470481614212565b9050919050565b6000602082019050818103600083015261472481614235565b9050919050565b6000602082019050818103600083015261474481614258565b9050919050565b600060208201905081810360008301526147648161427b565b9050919050565b600060208201905081810360008301526147848161429e565b9050919050565b600060208201905081810360008301526147a4816142c1565b9050919050565b600060208201905081810360008301526147c4816142e4565b9050919050565b600060208201905081810360008301526147e481614307565b9050919050565b600060208201905081810360008301526148048161432a565b9050919050565b600060208201905081810360008301526148248161434d565b9050919050565b6000602082019050818103600083015261484481614370565b9050919050565b60006020820190508181036000830152614864816143b6565b9050919050565b60006020820190508181036000830152614884816143fc565b9050919050565b60006020820190506148a0600083018461441f565b92915050565b60006148b06148c1565b90506148bc8282614ba1565b919050565b6000604051905090565b600067ffffffffffffffff8211156148e6576148e5614cd9565b5b6148ef82614d08565b9050602081019050919050565b600067ffffffffffffffff82111561491757614916614cd9565b5b61492082614d08565b9050602081019050919050565b600081519050919050565b600081519050919050565b600082825260208201905092915050565b600082825260208201905092915050565b600081905092915050565b600061497b82614af9565b915061498683614af9565b9250827fffffffffffffffffffffffffffffffffffffffffffffffffffffffffffffffff038211156149bb576149ba614c4c565b5b828201905092915050565b60006149d182614af9565b91506149dc83614af9565b9250826149ec576149eb614c7b565b5b828204905092915050565b6000614a0282614af9565b9150614a0d83614af9565b9250817fffffffffffffffffffffffffffffffffffffffffffffffffffffffffffffffff0483118215151615614a4657614a45614c4c565b5b828202905092915050565b6000614a5c82614af9565b9150614a6783614af9565b925082821015614a7a57614a79614c4c565b5b828203905092915050565b6000614a9082614ad9565b9050919050565b60008115159050919050565b6000819050919050565b60007fffffffff0000000000000000000000000000000000000000000000000000000082169050919050565b600073ffffffffffffffffffffffffffffffffffffffff82169050919050565b6000819050919050565b82818337600083830152505050565b60005b83811015614b30578082015181840152602081019050614b15565b83811115614b3f576000848401525b50505050565b6000614b5082614af9565b91506000821415614b6457614b63614c4c565b5b600182039050919050565b60006002820490506001821680614b8757607f821691505b60208210811415614b9b57614b9a614caa565b5b50919050565b614baa82614d08565b810181811067ffffffffffffffff82111715614bc957614bc8614cd9565b5b80604052505050565b6000614bdd82614af9565b91507fffffffffffffffffffffffffffffffffffffffffffffffffffffffffffffffff821415614c1057614c0f614c4c565b5b600182019050919050565b6000614c2682614af9565b9150614c3183614af9565b925082614c4157614c40614c7b565b5b828206905092915050565b7f4e487b7100000000000000000000000000000000000000000000000000000000600052601160045260246000fd5b7f4e487b7100000000000000000000000000000000000000000000000000000000600052601260045260246000fd5b7f4e487b7100000000000000000000000000000000000000000000000000000000600052602260045260246000fd5b7f4e487b7100000000000000000000000000000000000000000000000000000000600052604160045260246000fd5b6000601f19601f8301169050919050565b7f6e6f7420656e6f75676820646f776e766f746573000000000000000000000000600082015250565b7f537472696e67733a20686578206c656e67746820696e73756666696369656e74600082015250565b7f5061757361626c653a206e6f7420706175736564000000000000000000000000600082015250565b7f455243373231456e756d657261626c653a206f776e657220696e646578206f7560008201527f74206f6620626f756e6473000000000000000000000000000000000000000000602082015250565b7f4552433732313a207472616e7366657220746f206e6f6e20455243373231526560008201527f63656976657220696d706c656d656e7465720000000000000000000000000000602082015250565b7f4552433732313a20746f6b656e20616c7265616479206d696e74656400000000600082015250565b7f4552433732313a207472616e7366657220746f20746865207a65726f2061646460008201527f7265737300000000000000000000000000000000000000000000000000000000602082015250565b7f4552433732313a20617070726f766520746f2063616c6c657200000000000000600082015250565b7f4552433732313a206f70657261746f7220717565727920666f72206e6f6e657860008201527f697374656e7420746f6b656e0000000000000000000000000000000000000000602082015250565b7f5061757361626c653a2070617573656400000000000000000000000000000000600082015250565b7f4552433732313a20617070726f76652063616c6c6572206973206e6f74206f7760008201527f6e6572206e6f7220617070726f76656420666f7220616c6c0000000000000000602082015250565b7f4552433732313a2062616c616e636520717565727920666f7220746865207a6560008201527f726f206164647265737300000000000000000000000000000000000000000000602082015250565b7f4552433732313a206f776e657220717565727920666f72206e6f6e657869737460008201527f656e7420746f6b656e0000000000000000000000000000000000000000000000602082015250565b7f6e6f7420656e6f75676820646f776e766f746520726174650000000000000000600082015250565b7f4552433732313a206d696e7420746f20746865207a65726f2061646472657373600082015250565b7f45524337323155524953746f726167653a2055524920717565727920666f722060008201527f6e6f6e6578697374656e7420746f6b656e000000000000000000000000000000602082015250565b7f63616e2774206166666f7264207075626c697368696e67000000000000000000600082015250565b7f4552433732313a20617070726f76656420717565727920666f72206e6f6e657860008201527f697374656e7420746f6b656e0000000000000000000000000000000000000000602082015250565b7f4552433732313a207472616e73666572206f6620746f6b656e2074686174206960008201527f73206e6f74206f776e0000000000000000000000000000000000000000000000602082015250565b7f4552433732314d657461646174613a2055524920717565727920666f72206e6f60008201527f6e6578697374656e7420746f6b656e0000000000000000000000000000000000602082015250565b7f4552433732313a20617070726f76616c20746f2063757272656e74206f776e6560008201527f7200000000000000000000000000000000000000000000000000000000000000602082015250565b7f4552433732313a207472616e736665722063616c6c6572206973206e6f74206f60008201527f776e6572206e6f7220617070726f766564000000000000000000000000000000602082015250565b7f6e6f7420656e6f756768207570766f7465730000000000000000000000000000600082015250565b7f455243373231456e756d657261626c653a20676c6f62616c20696e646578206f60008201527f7574206f6620626f756e64730000000000000000000000000000000000000000602082015250565b7f416363657373436f6e74726f6c3a206163636f756e7420000000000000000000600082015250565b7f4552433732314275726e61626c653a2063616c6c6572206973206e6f74206f7760008201527f6e6572206e6f7220617070726f76656400000000000000000000000000000000602082015250565b7f206973206d697373696e6720726f6c6520000000000000000000000000000000600082015250565b7f416363657373436f6e74726f6c3a2063616e206f6e6c792072656e6f756e636560008201527f20726f6c657320666f722073656c660000000000000000000000000000000000602082015250565b6153fe81614a85565b811461540957600080fd5b50565b61541581614a97565b811461542057600080fd5b50565b61542c81614aa3565b811461543757600080fd5b50565b61544381614aad565b811461544e57600080fd5b50565b61545a81614af9565b811461546557600080fd5b5056fea2646970667358221220e1bb8769f96452b1a344fbc7d08557968af50cf07b4c8f5de23510b31f565e3264736f6c63430008040033",
  "linkReferences": {},
  "deployedLinkReferences": {}
}